:1000000075A0FF7581CFE4F5A811FA510EE431F027
:1000100031FC57656C636F6D65204B6574696C00CE
:1000200011FA51273107B2B07844117CFF3155E401
:1000300031F078407F1031F5512775404F7541758B
:1000400075427475433D754420E5B054014430F564
:100050004575484975496E754A3D754B20784F7F07
:1000600004E580C0E054014430F618D0E003DFF32B
:10007000744031F078407F1031F580A6C0009000C8
:10008000D27A0A7B2F0B11A550FB11BEEBF608A309
:10009000A3A3A3DAEED0007A09E6B43005762008EF
:1000A000DAF70AEA22E493CCC39CFC740193CD9D59
:1000B000FD740293CE9EFE740393CF9FFF22E493C0
:1000C0002CFC7401933DFD7402933EFE7403933F38
:1000D000FF2200CA9A3B00E1F50580969800404255
:1000E0000F00A086010010270000E8030000640054
:1000F00000000A000000010000007FF97E337D103F
:10010000DFFEDEFCDDFA22C2B5C2B7D2B7D2B6C27C
:10011000B6758A00758C00E589D2E0C2E1D2E2C2F0
:10012000E3F589E588D2E4C2E5F588D2B511FAC2D3
:10013000B5E590FCE5B003540FFDE58AC454F04DDD
:10014000FDE58AC4540FFEE58CC454F04EFEE58CE8
:10015000C4540FFF2275404675413D7542207843D7
:100160007945BF070040197F09E7BF0603762E08CF
:10017000F60809DFF4754D4D754E48754F7A80309D
:10018000BF040040197F09E7BF0303762E08F60875
:1001900009DFF4754D4B754E48754F7A8012087F14
:1001A00009E7F60809DFFA754D48754E7A754F2054
:1001B00022C0077F00DFFED00722D2E5F5A0C2A54E
:1001C00022C0E0C4540F31BAD0E0540F31BA31B17B
:1001D00022C0E0C4540FD2E431BAD0E0540FD2E4CC
:1001E00031BA31B122740131C17F0031B1DFFC225B
:1001F000448031C122E631D108DFFA22D083D08297
:10020000E493A3600431D180F7C082C083227403D9
:1002100031BA31B1742831C1742831C1740C31C183
:1002200031E5740631C12278407F107420F608DF72
:02023000FC22AE
:00000001FF
