:020000040800F2
:10000000002000200D0100084D0100084D010008EE
:100010004D0100084D0100084D01000800000000DE
:100020000000000000000000000000004D0100087A
:100030004D010008000000004D0100084D010008BE
:1000400045030008490300084D0300085103000858
:1000500055030008590300085D0300086103000808
:1000600065030008690300086D03000871030008B8
:1000700075030008790300087D0300088103000868
:1000800085030008890300088D0300084D0100085E
:100090004D0100084D0100084D01000891030008C2
:1000A00095030008990300089D030008A1030008B8
:1000B000A5030008A9030008AD030008B103000868
:1000C000B5030008B9030008BD030008C103000818
:1000D000C5030008C9030008CD030008D1030008C8
:1000E000D5030008D9030008DD0300080000000064
:1000F0000000000000000000000000000000000000
:0C01000000000000000000005FF808F1A3
:10010C00002103E0094B5B58435004310848094B6C
:10011C0042189A42F6D3084A02E0002342F8043B04
:10012C00064B9A42F9D300F077F87047D00B0008D1
:10013C0000000020000000200000002044000020EF
:10014C00FEE7000010B500F0CFF94FF4803000F05E
:10015C00EDF900F0A5FA40F20003C2F200031870AA
:10016C00012830D14FF0100000F042F94FF00000A0
:10017C0000F030F94FF0000000F024FA4FF00000CE
:10018C0000F038FA4FF0000000F028FA4FF00000B1
:10019C0000F03CFA4FF480304FF4802100F0ECF981
:1001AC004FF0010000F0F4F94FF03904204600F054
:1001BC005DFA0028FAD04FF0020000F0EFF900F0E1
:1001CC00F9F90828FBD14FF00100014600F02AFA9A
:1001DC004FF404704FF0010100F036FA10BD00BF6F
:1001EC0000B583B04FF01003ADF804304FF00003AE
:1001FC008DF807304FF48050C4F2010001A900F0D3
:10020C0005F903B000BD00BF08B54FF000604FF01A
:10021C00000100F05DF908BD38B5FFF793FFFFF75B
:10022C00F3FFFFF7DDFF4FF00800C4F2020000F00F
:10023C000DFB40F21801C2F2000142F24C43C4F231
:10024C0001030B6040F20203C2F200034B604FF05B
:10025C0000058D604FF00104CC600D614D614FF4D1
:10026C0080738B614FF48063CB614FF020030B6282
:10027C004FF400534B628D624FF00800C4F2020041
:10028C0000F0BCFB4FF00800C4F20200214600F065
:10029C00D5FB40F20401C2F200010D600C714C71EF
:1002AC004FF460238B60CD600C744FF41050C4F28B
:1002BC00010000F011FA4FF41050C4F201004FF09D
:1002CC000E0122464FF0050300F066FA4FF4105071
:1002DC00C4F20100214600F033FA4FF41050C4F27E
:1002EC000100214600F020FA4FF41050C4F2010036
:1002FC0000F032FA4FF41054C4F20104204600F01E
:10030C0031FA0028FAD14FF41050C4F2010000F079
:10031C002DFA4FF41054C4F20104204600F02CFACC
:10032C000028FAD14FF41050C4F201004FF0010133
:10033C0000F026FAFEE700BF704700BF704700BF11
:10034C00704700BF704700BF704700BF704700BFC9
:10035C00704700BF704700BF704700BF704700BFB9
:10036C00704700BF704700BF704700BF704700BFA9
:10037C00704700BF704700BF704700BF704700BF99
:10038C00704700BF704700BF704700BF704700BF89
:10039C00704700BF704700BF704700BF704700BF79
:1003AC00704700BF704700BF704700BF704700BF69
:1003BC00704700BF704700BF704700BF704700BF59
:1003CC00704700BF704700BF704700BF704700BF49
:1003DC00704700BF4FF40053C4F202031A6802F0D6
:1003EC0038021A601A6840EA02021A60704700BFAD
:1003FC004FF40053C4F202031A6822F010021A6080
:10040C001A6840EA02021A60704700BF2DE9F00337
:10041C00CB7803F00F0513F0100F1CBF8B781D4326
:10042C000B7833B3D0F800C04FF000034FF0010647
:10043C004FF00F0806FA03F20C8802EA0404944207
:10044C0011D14FEA830708FA07F92CEA090C05FACF
:10045C0007F74CEA070CCF78282F08BF446102D06D
:10046C00482F08BF026103F10103082BE2D1C0F849
:10047C0000C00B88FF2B28D9D0F804C04FF0000324
:10048C004FF001064FF00F0803F1080206FA02F2D2
:10049C000C8802EA0404944211D14FEA830708FA4B
:1004AC0007F92CEA090C05FA07F74CEA070CCF7888
:1004BC00282F08BF4461CC78482C08BF026103F197
:1004CC000103082BE0D1C0F804C0BDE8F00370476D
:1004DC0021F0604121F07F0101434FF46D43CEF2D6
:1004EC0000039960704700BF4FF48053C4F20203BD
:1004FC001A6842F001021A6059684FF00002CFF6F8
:10050C00FF0201EA02025A601A6822F0847222F495
:10051C0080321A601A6822F480221A605A6822F417
:10052C00FE025A604FF000029A6070474FF48053FD
:10053C00C4F202031A6822F480321A601A6822F498
:10054C0080221A60B0F5803F03D0B0F5802F11D116
:10055C0008E04FF48053C4F202031A6842F480326C
:10056C001A6070474FF48053C4F202031A6842F4C5
:10057C00A0221A60704700BF4FF48053C4F20203EC
:10058C005A6822F47C1240EA02020A435A6070470D
:10059C004FF06003C4F24223186070474FF480534D
:1005AC00C4F202035A6822F0030240EA02025A60C3
:1005BC00704700BF4FF48053C4F20203586800F038
:1005CC000C0070474FF48053C4F202035A6822F0B7
:1005DC00F00240EA02025A60704700BF4FF48053A9
:1005EC00C4F202035A6822F4E06240EA02025A6042
:1005FC00704700BF4FF48053C4F202035A6822F4D0
:10060C00605242EAC0025A60704700BF4FF48053F8
:10061C00C4F202035A6822F4404240EA02025A60D1
:10062C00704700BF39B14FF48053C4F202035A69CA
:10063C001043586170474FF48053C4F202035A6957
:10064C0022EA00005861704739B14FF48053C4F26C
:10065C0002039A691043986170474FF48053C4F2B7
:10066C0002039A6922EA0000986170474FEA50131E
:10067C00012B05D14FF48053C4F202031B6807E031
:10068C00022B4FF48053C4F202030CBF1B6A5B6A4B
:10069C0000F01F0023FA00F000F00100704700BFCB
:1006AC0010B582B04FF0000301934FF03104204697
:1006BC00FFF7DCFF019B03F10103019318B9019BC8
:1006CC00B3F5A06FF3D14FF03100FFF7CFFF003837
:1006DC0018BF012002B010BD10B4436823F470237E
:1006EC0023F480730A6813430A7943EA02234360B4
:1006FC0084688A68CB681A434FF2FD73CFF6F173A6
:10070C0004EA030342EA03034A7943EA420383609F
:10071C00C26A22F470020B7C03F1FF33DBB242EAB3
:10072C000353C36210BC704721B1836843F00103CB
:10073C0083607047836823F001038360704700BFB8
:10074C0021B1836843F4807383607047836823F41A
:10075C0080738360704700BF836843F00803836035
:10076C00704700BF8068C0F3C0007047836843F0D7
:10077C0004038360704700BF8068C0F3800070473B
:10078C0021B1836843F4A00383607047836823F42A
:10079C00A0038360704700BF70B4092910D9C668E4
:1007AC0001EB4104A4F11E044FF0070505FA04F512
:1007BC0026EA050503FA04F445EA0403C3600DE0D8
:1007CC00066901EB41044FF0070505FA04F526EA2A
:1007DC00050503FA04F445EA04030361062A10D85C
:1007EC00446B02F1FF3202EB82024FF01F0303FA5B
:1007FC0002F324EA030301FA02F143EA0102426321
:10080C0022E00C2A10D8046B02EB8202A2F1230224
:10081C004FF01F0303FA02F324EA030301FA02F177
:10082C0043EA010202630FE0C46A02EB8202A2F106
:10083C0041024FF01F0303FA02F324EA030301FA07
:10084C0002F143EA0102C26270BC7047036823F0F4
:10085C00010303604FF00003036043608360C360D7
:10086C004FF06C03C4F20203984200F087804FF003
:10087C006C03C4F20203984227D84FF03003C4F241
:10088C00020398425FD04FF03003C4F20203984247
:10089C000DD84FF00803C4F20203984241D04FF038
:1008AC001C03C4F20203984240F0A68042E04FF0D1
:1008BC004403C4F2020398424ED04FF05803C4F2E2
:1008CC000203984240F098804FE040F21C43C4F27F
:1008DC00020398426DD040F21C43C4F202039842CA
:1008EC000CD84FF08003C4F2020398424FD04FF45F
:1008FC008163C4F2020398427ED151E040F244433A
:10090C00C4F20203984266D04FF48B63C4F2020324
:10091C00984269D04FF48663C4F2020398426BD1BB
:10092C0050E04FF00003C4F202035A6842F00F0289
:10093C005A6070474FF00003C4F202035A6842F049
:10094C00F0025A6070474FF00003C4F202035A6879
:10095C0042F470625A6070474FF00003C4F2020315
:10096C005A6842F470425A6070474FF00003C4F268
:10097C0002035A6842F470225A6070474FF0000329
:10098C00C4F202035A6842F470025A6070474FF086
:10099C000003C4F202035A6842F070625A60704756
:1009AC004FF48063C4F202035A6842F00F025A609B
:1009BC0070474FF48063C4F202035A6842F0F002AD
:1009CC005A6070474FF48063C4F202035A6842F4D1
:1009DC0070625A6070474FF48063C4F202035A6825
:1009EC0042F470425A6070474FF48063C4F20203C1
:1009FC005A6842F470225A60704700BF10B4026803
:100A0C0022F4FE4222F0F0020C6A8B6844EA0303E3
:100A1C000C6923434C6923438C692343CC692343DE
:100A2C004C6A23438C6A234313430360CB684360B3
:100A3C000B6883604B68C36010BC704721B10368BE
:100A4C0043F0010303607047036823F00103036064
:100A5C00704700BF43F60C03C4F201031A88F0B4CC
:100A6C0012F4005212D00A2851D043F60002C4F2FC
:100A7C000102B2F800C01CF0800FFAD043F6040358
:100A8C0080B2C4F201031880F0BC704741F2180424
:100A9C00C4F20204266840F6040146F004072760FD
:100AAC002568C4F2010145F001062660276843F66B
:100ABC00100647F4804525600F6843F6140527F0AF
:100ACC00F0040C600F6843F6080447F0B0070F60A1
:100ADC000F684FF00C0C27F470670F600F68C4F2AE
:100AEC00010647F480670F60C4F2010540F2413102
:100AFC00C4F201043280A3F800C02A8021801A8835
:100B0C000A281FFA82FC4CF400511980ADD143F62F
:100B1C000C03C4F201031A8812F400520FD043F6EE
:100B2C000002C4F20102138813F0800FFBD043F6CD
:100B3C000401C4F201014FF00D020A8095E741F265
:100B4C001804C4F20204266840F6040146F00407B7
:100B5C0027602568C4F2010145F00106266027686C
:100B6C0043F6100647F4804525600F6843F61405DC
:100B7C0027F0F0040C600F6843F6080447F0B00748
:100B8C000F600F6840F2413C27F470670F600F68EC
:100B9C00C4F2010647F480670F60C4F201054FF000
:100BAC000C01C4F20104328019802A80A4F800C020
:100BBC001A8891B241F4005CA3F800C0AFE700BF03
:040BCC00101C704742
:040000050800010CE2
:00000001FF
