:020000040800F2
:10000000002000200D0100084D0100084D010008EE
:100010004D0100084D0100084D01000800000000DE
:100020000000000000000000000000004D0100087A
:100030004D010008000000004D0100084D010008BE
:1000400085030008890300088D0300089103000858
:1000500095030008990300089D030008A103000808
:10006000A5030008A9030008AD030008B1030008B8
:10007000B5030008B9030008BD030008C103000868
:10008000C5030008C9030008CD0300084D0100089E
:100090004D0100084D0100084D010008D103000882
:1000A000D5030008D9030008DD030008E1030008B8
:1000B0005101000875010008E5030008E903000884
:1000C000ED030008F1030008F5030008F903000838
:1000D000FD030008010400080504000809040008E5
:1000E0000D040008110400081504000800000000B9
:1000F0000000000000000000000000000000000000
:0C01000000000000000000005FF808F1A3
:10010C00002103E0094B5B58435004310848094B6C
:10011C0042189A42F6D3084A02E0002342F8043B04
:10012C00064B9A42F9D300F00DF97047C809000844
:10013C00000000200000002000000020140000201F
:10014C00FEE7000008B540F20003C2F200031A8873
:10015C0002F1010292B21A804FF080404FF001017F
:10016C0000F0A2F908BD00BF08B540F20003C2F2CE
:10017C00000319884FF08042928C92B242EA0142FD
:10018C005A6059689A688A1ADA605A689A604FF409
:10019C008060C4F200004FF0010100F085F908BD49
:1001AC0010B500F0E9F94FF4803000F007FA00F0D8
:1001BC00B3FA40F21003C2F20003187001282CD1DC
:1001CC004FF0100000F034FB4FF0000000F022FB69
:1001DC004FF0000000F03EFA4FF0000000F052FA31
:1001EC004FF0000000F042FA4FF480304FF48021C1
:1001FC0000F00AFA4FF0010000F012FA4FF0390447
:10020C00204600F06FFA0028FAD04FF0020000F000
:10021C000DFA00F017FA0828FBD14FF003004FF04D
:10022C00010100F04DFA4FF004004FF0010100F015
:10023C0035FA10BD00B583B04FF00203ADF80430B1
:10024C004FF004038DF807304FF003038DF80630A0
:10025C004FF40060C4F2010001A900F02BF903B0C7
:10026C0000BD00BF00B585B04FF0FF33ADF80830CE
:10027C004FF00003ADF80430ADF80A30ADF806309D
:10028C004FF0804001A900F0C1F84FF080404FF4CE
:10029C00807303834FF0670303814FF001010A461B
:1002AC0000F0ECF805B000BD10B584B042F20F734D
:1002BC00ADF8083040F65F13ADF804304FF0000392
:1002CC00ADF80A30ADF806304FF48064C4F2000487
:1002DC00204601A900F09AF8204600F0DBF82046F1
:1002EC004FF001010A4600F0C9F804B010BD00BF80
:1002FC0030B583B04FF000604FF0000100F07EFA93
:10030C004FF01C038DF804304FF000058DF80550AC
:10031C004FF001048DF806408DF8074001A800F05D
:10032C0017FA4FF01D038DF804308DF805504FF07F
:10033C0002038DF806308DF8074001A800F008FA8A
:10034C0003B030BD08B5FFF72BFFFFF773FFFFF7C6
:10035C00CFFFFFF787FFFFF7A7FF4FF080404FF06D
:10036C00010100F07BF84FF48060C4F200004FF004
:10037C00010100F073F8FEE7704700BF704700BF43
:10038C00704700BF704700BF704700BF704700BF89
:10039C00704700BF704700BF704700BF704700BF79
:1003AC00704700BF704700BF704700BF704700BF69
:1003BC00704700BF704700BF704700BF704700BF59
:1003CC00704700BF704700BF704700BF704700BF49
:1003DC00704700BF704700BF704700BF704700BF39
:1003EC00704700BF704700BF704700BF704700BF29
:1003FC00704700BF704700BF704700BF704700BF19
:10040C00704700BF704700BF704700BF038803F000
:10041C008F03038003889BB2CA8813434A88134313
:10042C009BB203808B8883850B8803854FF0010377
:10043C0083824FF43053C4F201034FF45052C4F290
:10044C000102904214BF00220122984214BF1346AD
:10045C0042F001030BB10B7A0386704729B1038874
:10046C009BB243F0010303807047038823F0010320
:10047C004FEA83534FEA93530380704722B1838929
:10048C009BB219438181704783899BB223EA010196
:10049C0081817047038923F007034FEA03434FEA36
:1004AC0013430381704700BF6FEA010189B20182D7
:1004BC00704700BF2DE9F003CB7803F00F0513F064
:1004CC00100F1CBF8B781D430B7833B3D0F800C0D2
:1004DC004FF000034FF001064FF00F0806FA03F23D
:1004EC000C8802EA0404944211D14FEA830708FAFB
:1004FC0007F92CEA090C05FA07F74CEA070CCF7838
:10050C00282F08BF446102D0482F08BF026103F1B5
:10051C000103082BE2D1C0F800C00B88FF2B28D9AF
:10052C00D0F804C04FF000034FF001064FF00F0855
:10053C0003F1080206FA02F20C8802EA040494425F
:10054C0011D14FEA830708FA07F92CEA090C05FACE
:10055C0007F74CEA070CCF78282F08BF4461CC78FA
:10056C00482C08BF026103F10103082BE0D1C0F84D
:10057C0004C0BDE8F00370474FF48053C4F202038B
:10058C001A6842F001021A6059684FF00002CFF667
:10059C00FF0201EA02025A601A6822F0847222F405
:1005AC0080321A601A6822F480221A605A6822F487
:1005BC00FE025A604FF000029A6070474FF480536D
:1005CC00C4F202031A6822F480321A601A6822F408
:1005DC0080221A60B0F5803F03D0B0F5802F11D186
:1005EC0008E04FF48053C4F202031A6842F48032DC
:1005FC001A6070474FF48053C4F202031A6842F435
:10060C00A0221A60704700BF4FF48053C4F202035B
:10061C005A6822F47C1240EA02020A435A6070477C
:10062C004FF06003C4F24223186070474FF48053BC
:10063C00C4F202035A6822F0030240EA02025A6032
:10064C00704700BF4FF48053C4F20203586800F0A7
:10065C000C0070474FF48053C4F202035A6822F026
:10066C00F00240EA02025A60704700BF4FF4805318
:10067C00C4F202035A6822F4E06240EA02025A60B1
:10068C00704700BF4FF48053C4F202035A6822F43F
:10069C00605242EAC0025A60704700BF39B14FF451
:1006AC008053C4F202039A691043986170474FF467
:1006BC008053C4F202039A6922EA000098617047E1
:1006CC0039B14FF48053C4F20203DA691043D86194
:1006DC0070474FF48053C4F20203DA6922EA000037
:1006EC00D86170474FEA5013012B05D14FF480535A
:1006FC00C4F202031B6807E0022B4FF48053C4F2D0
:10070C0002030CBF1B6A5B6A00F01F0023FA00F0A7
:10071C0000F00100704700BF10B582B04FF000032D
:10072C0001934FF031042046FFF7DCFF019B03F1EE
:10073C000103019318B9019BB3F5A06FF3D14FF0EE
:10074C003100FFF7CFFF003818BF012002B010BDF9
:10075C0070B4C378002B3ED04FF46D43CEF200033F
:10076C00DB686FEA0303C3F30223C3F10402457889
:10077C0005FA02F24FF00F0525FA03F581780D40CA
:10078C0015434FEA0515027802F003044FEAC4043E
:10079C0005FA04F54FEA92024FF46143CEF20003DE
:1007AC0002F1C00253F822604FF0FF0101FA04F18C
:1007BC0026EA010405EA0101214343F822100278DC
:1007CC004FEA521102F01F024FF0010000FA02F240
:1007DC0043F8212010E003784FEA531203F01F0373
:1007EC004FF0010101FA03F14FF46143CEF2000323
:1007FC0002F1200243F8221070BC704721F06041D6
:10080C0021F07F0101434FF46D43CEF20003996058
:10081C00704700BF4FF40053C4F202031A6802F091
:10082C0038021A601A6840EA02021A60704700BF68
:10083C004FF40053C4F202031A6822F010021A603B
:10084C001A6840EA02021A60704700BF43F60C03B4
:10085C00C4F201031A88F0B412F4005212D00A2820
:10086C0051D043F60002C4F20102B2F800C01CF0F1
:10087C00800FFAD043F6040380B2C4F2010318804F
:10088C00F0BC704741F21804C4F20204266840F62A
:10089C00040146F0040727602568C4F2010145F005
:1008AC0001062660276843F6100647F4804525604C
:1008BC000F6843F6140527F0F0040C600F6843F63C
:1008CC00080447F0B0070F600F684FF00C0C27F4CA
:1008DC0070670F600F68C4F2010647F480670F6001
:1008EC00C4F2010540F24131C4F201043280A3F894
:1008FC0000C02A8021801A880A281FFA82FC4CF436
:10090C0000511980ADD143F60C03C4F201031A88CF
:10091C0012F400520FD043F60002C4F20102138805
:10092C0013F0800FFBD043F60401C4F201014FF029
:10093C000D020A8095E741F21804C4F202042668FD
:10094C0040F6040146F0040727602568C4F2010153
:10095C0045F001062660276843F6100647F48045EB
:10096C0025600F6843F6140527F0F0040C600F683F
:10097C0043F6080447F0B0070F600F6840F2413CA3
:10098C0027F470670F600F68C4F2010647F48067A4
:10099C000F60C4F201054FF00C01C4F20104328067
:1009AC0019802A80A4F800C01A8891B241F4005C26
:0C09BC00A3F800C0AFE700BF101C70479C
:040000050800010CE2
:00000001FF
