:020000040800F2
:1000000000200020E5010008370200083702000840
:10001000370200083702000837020008000000001D
:10002000000000000000000000000000370200088F
:1000300037020008000000003702000837020008FD
:10004000151B0008191B00081D1B0008211B0008B8
:10005000251B0008291B00082D1B0008311B000868
:10006000351B0008391B00083D1B0008411B000818
:10007000451B0008491B00084D1B0008511B0008C8
:10008000551B0008591B00085D1B000837020008BB
:10009000370200083702000837020008611B000819
:1000A000651B0008691B00086D1B0008711B000818
:1000B000A5090008B9090008110A0008751B000805
:1000C000791B00087D1B0008811B0008851B0008A8
:1000D000891B00088D1B0008911B0008951B000858
:1000E000991B00089D1B0008A11B0008A51B000808
:1000F000A91B0008AD1B0008B11B0008B51B0008B8
:10010000B91B0008BD1B0008C11B0008C51B000867
:10011000C91B0008CD1B00085D030008B1040008DE
:10012000D11B0008D51B0008D91B0008DD1B0008E7
:1001300000000000000000000000000000000000BF
:1001400000000000000000000000000000000000AF
:10015000000000000000000000000000000000009F
:10016000000000000000000000000000000000008F
:10017000000000000000000000000000000000007F
:10018000000000000000000000000000000000006F
:10019000000000000000000000000000000000005F
:1001A000000000000000000000000000000000004F
:1001B000000000000000000000000000000000003F
:1001C000000000000000000000000000000000002F
:1001D000000000000000000000000000000000001F
:0401E0005FF8E0F1F3
:1001E40000F026F80C4880F30888002103E00B4B4C
:1001F4005B58435004310A480A4B42189A42F6D3DA
:10020400094A02E0002342F8043B084B9A42F9D31E
:1002140000F0E6FF7047000000200020AC25000835
:10022400000000200000002000000020341C0020FA
:100234007047FEE740F20003C2F2000393F82B304C
:100244003BB14FF4E843C4F200034FF001021A60DB
:1002540070474FF4E843C4F200034FF003021A60FE
:10026400704700BF4FEA535531F8155015802344A9
:10027400F8E700BF08B540F23001C2F2000147F2CE
:100284000842C4F200024FF0000340F22404C2F218
:1002940000042468FFF7E6FF08BD00BF30B585B051
:1002A40040F20003C2F200031B8DADF8083041F2A6
:1002B400DF53ADF804304FF000031D46ADF80A30AB
:1002C400ADF806304FF48054C4F20004204601A96E
:1002D40001F0BAFE204602F05FF84FF036038DF8C5
:1002E40000308DF801504FF004038DF802304FF0C8
:1002F40001058DF80350684601F070FC204629463C
:1003040002F00EF82046294602F090F820462946CD
:100314002A4602F029F84FF000094FF4805AC4F23B
:10032400000A40F23001C2F2000147F20842C4F26E
:1003340000024FF0000341F23008C2F20008D8F87E
:100344000000D8F80460D8F80870D8F80C80344657
:10035400FFF788FF05B030BDAAF8109020B94444D7
:10036400BC4208BF344670474444BC4218BF70477F
:10037400B3463E465F46A9EB08087047F0B58BB01C
:100384004FF4404001F01EFD4FF0000605964FF07B
:1003940001048DF818408DF819404FF46023079339
:1003A40008968DF824404FF41055C4F201052846F0
:1003B40005A901F02BF928464FF0030101F018FAC2
:1003C40028464FF0020122464FF0070301F0D8F906
:1003D40028464FF003014FF002024FF0070301F0EB
:1003E400CFF928464FF006014FF003024FF0070300
:1003F40001F0C6F92846214601F0B6F940F200039F
:10040400C2F200031B8DADF80C3041F2DF53ADF89E
:1004140008303746ADF80E60ADF80A604FF4A055C9
:10042400C4F20005284602A901F00EFE284601F098
:10043400B3FF4FF037038DF804308DF805604FF0AB
:1004440005038DF806308DF8074001A801F0C6FBBE
:100454002846214601F064FF2846214601F0E6FFC4
:1004640028462146224601F07FFF4FF000094FF451
:10047400A05AC4F2000A40F23001C2F2000147F26D
:100484000842C4F200024FF0000341F23008C2F205
:100494000008D8F804B0D8F808C0D8F80C805C4636
:1004A4004FF00006FFF7DEFE0BB0F0BDAAF8109087
:1004B4004FF41050C4F20100B0F844704FF482506D
:1004C400C2F20000875306F102064444644504BFA7
:1004D4005C460026704700BF2DE9F00140F200039E
:1004E400C2F2000393F8253003F1FF33042B00F22A
:1004F400C980DFE803F0031A314C67004FF08043F2
:100504004FF000021A84988C80B2194640F200021F
:10051400C2F2000204E092F82F30002B00F0B28007
:100524008B8C9BB28342F6D0ACE04FF080434FF00B
:1005340022021A84988C80B2194640F20002C2F258
:10054400000204E092F82F30002B00F09B808B8C8B
:100554009BB28342F6D095E04FF40063C4F20003EB
:100564004FF000021A84988C80B24FF40061C4F2F8
:10057400000140F20002C2F2000203E092F82F30C0
:10058400002B7FD08B8C9BB28342F7D07AE04FF460
:100594000063C4F200034FF022021A84988C80B2E4
:1005A4004FF40061C4F2000140F20002C2F2000202
:1005B40003E092F82F30002B64D08B8C9BB28342E3
:1005C400F7D05FE040F20001C2F2000191F82B3055
:1005D40091F82A2003EA020291F82E00191E18BF8E
:1005E400012100280CBF002101F00101002932D0B3
:1005F4004FF48057C4F201079846944640F200062F
:10060400C2F20006BD684146604696F82F4003EAF0
:100614000505003C18BF0124954214BF002404F0D2
:100624000104002CEED14FF48055C4F2010540F2D0
:100634000004C2F20004AA6894F82F3001EA02020E
:10064400003B18BF012390420CBF002303F00103B9
:10065400002BF0D116E04FF48055C4F2010540F2AE
:100664000004C2F20004A86894F82F1003EA000002
:10067400003918BF012190420CBF002101F0010193
:100684000029F0D1BDE8F001704700BF4FF480525B
:10069400C4F20102916840F20003C2F2000383F83D
:1006A4003010916883F83110916883F832109168A2
:1006B40083F83310916883F83410916883F8351007
:1006C400916883F83610916883F83710916883F83D
:1006D4003810916883F83910916883F83A1091685A
:1006E40083F83B10916883F83C10916883F83D10BF
:1006F400916883F83E10916883F83F10916883F8FD
:100704004010916883F84110916883F84210916811
:1007140083F84310916883F84410916883F8451076
:10072400916883F84610916883F84710916883F8BC
:100734004810916883F84910916883F84A109168C9
:1007440083F84B10916883F84C10916883F84D102E
:10075400916883F84E10916883F84F10916883F87C
:100764005010916883F85110916883F85210916881
:1007740083F85310916883F85410916883F85510E6
:10078400916883F85610916883F85710916883F83C
:100794005810916883F85910916883F85A10916839
:1007A40083F85B10916883F85C10916883F85D109E
:1007B400916883F85E10916883F85F10916883F8FC
:1007C4006010916883F86110916883F862109168F1
:1007D40083F86310916883F86410916883F8651056
:1007E400916883F86610916883F86710916883F8BC
:1007F4006810916883F86910916883F86A109168A9
:1008040083F86B10916883F86C10916883F86D100D
:10081400916883F86E10916883F86F10916883F87B
:100824007010916883F87110916883F87210916860
:1008340083F87310916883F87410916883F87510C5
:10084400916883F87610916883F87710916883F83B
:100854007810916883F87910916883F87A10916818
:1008640083F87B10916883F87C10916883F87D107D
:10087400916883F87E10916883F87F10916883F8FB
:100884008010916883F88110916883F882109168D0
:1008940083F88310916883F88410916883F8851035
:1008A400916883F88610916883F88710916883F8BB
:1008B4008810916883F88910916883F88A10916888
:1008C40083F88B10916883F88C10916883F88D10ED
:1008D400916883F88E10916883F88F10916883F87B
:1008E4009010916883F89110916883F89210916840
:1008F40083F89310916883F89410916883F89510A5
:10090400916883F89610916883F89710916883F83A
:100914009810916883F89910916883F89A109168F7
:1009240083F89B10916883F89C10916883F89D105C
:10093400916883F89E10916883F89F10916883F8FA
:10094400A010916883F8A110916883F8A2109168AF
:1009540083F8A310916883F8A410916883F8A51014
:10096400916883F8A610916883F8A710916883F8BA
:10097400A810916883F8A910916883F8AA10916867
:1009840083F8AB10916883F8AC10916883F8AD10CC
:10099400916883F8AE10926883F8AF20704700BF67
:1009A4004FF0804109824FF00051CA8902F10102DF
:1009B400CA8170474FF0000040F20041C4F20001C8
:1009C40008824FF0005191F82F0000281CBF013815
:1009D40081F82F004FF080404FF00051CA89838C7A
:1009E40043EA02424B684A60A2EB03020A6040F603
:1009F4000000C4F20000CA8B838C43EA02424B69B4
:100A04004A61A2EB03020A61704700BF4FF0000283
:100A140040F60001C4F200010A824FF00051CA8B73
:100A240002F10102CA83704730B587B04FF000006D
:100A340001F0C8F94FF0000301934FF001058DF860
:100A440008508DF809504FF46022039204938DF8F6
:100A540014504FF41054C4F20104204601A900F0CC
:100A6400D5FD20464FF002012A464FF0050300F061
:100A740021FE2046294600F0F1FD204600F0FAFD53
:100A84004FF41054C4F20104204600F0F9FD00288C
:100A9400FAD14FF41050C4F2010000F0F5FD4FF408
:100AA4001054C4F20104204600F0F4FD0028FAD1E9
:100AB40007B030BD30B587B04FF4404001F082F943
:100AC4004FF0000301934FF001058DF808508DF8A5
:100AD40009504FF46022039204938DF814504FF49C
:100AE4001054C4F20104204601A900F08FFD2046F1
:100AF4004FF0020100F07CFE20464FF002012A462E
:100B04004FF0070300F03CFE20464FF003014FF086
:100B140002024FF0070300F033FE2046294600F09E
:100B240023FE07B030BD00BF00B587B04FF41050AE
:100B3400C4F201004FF0000100F016FE40F2000381
:100B4400C2F2000393F82330032B16D8DFE803F036
:100B540002070C114FF0000001F034F90DE04FF4DE
:100B6400804001F02FF908E04FF4004001F02AF929
:100B740003E04FF4404001F025F94FF000030193E6
:100B84004FF001038DF808308DF809304FF46023DD
:100B940003934FF40063049340F20003C2F2000392
:100BA40093F82130022B04BF01238DF8143009D0AF
:100BB400032B04BF02238DF8143003D0012B08BF8C
:100BC4008DF814304FF41050C4F2010001A900F064
:100BD4001DFD07B000BD00BF10B58CB04FF0080478
:100BE400C4F20204204600F00DFE4FF05800C4F297
:100BF400020000F007FE42F24D43C4F201030193E8
:100C040040F20002C2F2000202F1300302934FF0FC
:100C14000003039392F824204FEAC212A2F10202C5
:100C2400049205934FF08002069207930893099368
:100C34004FF400520A920B93204601A900F0BAFE29
:100C44004FF00003C4F202036FF070425A600CB01C
:100C540010BD00BF10B58CB04FF00800C4F2020004
:100C640000F0D0FD4FF05804C4F20204204600F016
:100C7400C9FD41F20803C4F20103019340F20002EA
:100C8400C2F2000202F1300302934FF00003039317
:100C940092F824204FEAC212A2F1020204920593B0
:100CA4004FF0800206920793089309934FF4005281
:100CB4000A920B93204601A900F07CFE4FF000033A
:100CC400C4F202036FF070425A600CB010BD00BF52
:100CD40010B500F0E5FF4FF4803001F003F801F0A7
:100CE400F1F841F63043C2F200031870012830D104
:100CF4004FF0100000F098FE4FF0000000F086FE68
:100D04004FF0000001F03AF84FF0000001F04EF807
:100D14004FF0000001F03EF84FF0000001F052F8EF
:100D24004FF480304FF4A01101F002F84FF00100AD
:100D340001F00AF84FF03904204601F0A9F8002820
:100D4400FAD04FF0020001F005F801F00FF808287E
:100D5400FBD14FF00100014601F040F840F61C20A1
:100D6400C0F207004FF0010101F04AF84FF03700DC
:100D7400C2F200004FF0010101F054F810BD00BFB1
:100D84002DE9F04383B04FF00304ADF804404FF075
:100D940000068DF807608DF806404FF44065C4F2F4
:100DA4000105284601A900F04DFE4FF0FC03ADF803
:100DB40004308DF807608DF806404FF40066C4F2E5
:100DC4000106304601A900F03DFE4FF44079ADF82C
:100DD40004904FF010038DF807308DF806404FF45F
:100DE4008057C4F20107384601A900F02BFE4FF0EA
:100DF4000203ADF804304FF004088DF807808DF835
:100E0400064030460DEB080100F01CFE4FF0800355
:100E1400ADF804308DF807808DF8064028460DEBB8
:100E2400080100F00FFEADF804904FF018098DF89A
:100E340007908DF8064028460DEB080100F002FEED
:100E44004FF47063ADF804308DF807908DF80640C8
:100E540030460DEB080100F0F5FD4FF0FF03ADF84F
:100E640004308DF807808DF8064038460DEB0801F4
:100E740000F0E8FD4FF60043ADF804304FF01403E2
:100E84008DF807308DF8064028460DEB080100F078
:100E9400D9FD03B0BDE8F08330B583B04FF00060F6
:100EA4004FF0000100F0F0FE4FF01C038DF8043009
:100EB4004FF000058DF805504FF001048DF8064001
:100EC4008DF8074001A800F089FE4FF01D038DF84E
:100ED40004308DF805504FF003038DF806308DF87B
:100EE400074001A800F07AFE4FF01E038DF804308D
:100EF4008DF805504FF002038DF806308DF8074049
:100F040001A800F06BFE03B030BD00BF70B588B01F
:100F14004FF0FF03ADF818304FF00005ADF8145052
:100F2400ADF81A50ADF816504FF43054C4F2010421
:100F3400204605A901F088F84FF06003ADF80430AD
:100F44004FF00106ADF80660ADF808504FF07F038E
:100F5400ADF80A30ADF80C504FF00203ADF80E3086
:100F6400ADF81050ADF81250204601A901F094F8E4
:100F740020464FF0080101F019FA204601A901F0BA
:100F8400DBF820464FF0080101F01CFA204601A9C5
:100F940001F02AF920464FF0080101F01FFA20461B
:100FA40001A901F077F920464FF0080101F022FA77
:100FB4002046314601F0B4F92046314601F0C0F92B
:100FC40008B070BD00B585B04FF0FF32ADF8082011
:100FD4004FF00003ADF80430ADF80A30ADF8063038
:100FE4004FF0804001A901F02FF84FF080434FF4F7
:100FF40080721A834FF067021A8105B000BD00BFEA
:1010040010B584B042F20F73ADF8083041F2DF53EB
:10101400ADF804304FF00003ADF80A30ADF80630F7
:101024004FF48064C4F20004204601A901F00CF8D6
:10103400204601F0B1F904B010BD00BF10B584B072
:101044004FF0FF33ADF808304FF00003ADF8043033
:10105400ADF80A30ADF806304FF40064C4F2000471
:10106400204601A900F0F0FF4FF0010323834FF065
:101074006703238104B010BD10B54FF48054C4F24B
:10108400000420464FF0200101F0C0F920464FF043
:10109400010101F045F910BD10B54FF4A054C4F29C
:1010A400000420464FF0200101F0B0F920464FF033
:1010B400010101F035F910BD10B584B04FF480443E
:1010C400C4F20104204600F019FF40F20003C2F20A
:1010D400000393F823104FEA012193F822208B1880
:1010E400ADF808304FF00003ADF80430ADF80A3025
:1010F400ADF80630204601A900F0A6FF20464FF4C3
:1011040080714FF0010201F03BF904B010BD00BF43
:1011140070B588B04FF0FF03ADF818304FF00005FC
:10112400ADF81450ADF81A50ADF816504FF4884489
:10113400C4F20104204605A900F086FF4FF06003C5
:10114400ADF804304FF00106ADF80660ADF80A5072
:10115400ADF80C50204601A900F09EFF20464FF048
:10116400080101F023F94FF07F03A386204631469E
:1011740001F0E6F808B070BD70B588B04FF0FF0319
:10118400ADF818304FF00005ADF81450ADF81A5012
:10119400ADF816504FF49044C4F20104204605A95A
:1011A40000F052FF4FF06003ADF804304FF0010639
:1011B400ADF80660ADF80A50ADF80C50204601A910
:1011C40000F06AFF20464FF0080101F0EFF84FF0FD
:1011D4007F03A3862046314601F0B2F808B070BD03
:1011E400F8B5FFF775FDFFF757FEFFF7C9FDFFF7E9
:1011F4008DFEFFF7E7FEFFF703FFFFF71FFFFFF783
:101204003BFFFFF749FFFFF757FFFFF781FFFFF7AA
:10121400B3FFFFF709FCFFF74DFC4FF43050C4F265
:1012240001004FF0010101F07BF84FF080404FF0D6
:10123400010101F075F84FF48060C4F200004FF032
:10124400010101F06DF84FF40060C4F200004FF0AA
:10125400010101F065F84FF080404FF0010101F009
:10126400E5F84FF080404FF001010A4601F07CF8A8
:101274004FF48060C4F200004FF0010101F0D6F891
:101284004FF48060C4F200004FF001010A4601F0FF
:101294006BF84FF40060C4F200004FF0010101F05C
:1012A400C5F84FF40060C4F200004FF001010A4693
:1012B40001F05AF840F20004C2F200044FF00006B4
:1012C400C4F2020694F82030012B40F093804FF0D2
:1012D400000784F820704FF48050C4F201004FF4EA
:1012E400807100F011FC4FF43055C4F2010528461A
:1012F400394601F015F8AF8494F82630AB8694F89B
:1013040027302B8794F82830AB8794F82930A5F838
:10131400403028464FF0010101F002F894F82130E2
:1013240003F1FF330D2B00F26381DFE813F00E00AD
:101334000E000E0061016101610127002C004900CB
:101344004E00520056005B005F004FF44063C4F24D
:101354000103DA6894F82C0094F82D104FEA413117
:1013640041EA80214FEA82524FEA925241EA020254
:10137400DA60FFF731FCFFF7D7FB39E1FFF79CFE9A
:10138400FFF768FC34E1FFF795FBFEF753FF94F891
:101394002A30042B00F22C81DFE803F00306090C49
:1013A4000F00FEF767FF23E1FEF778FF20E1FEF769
:1013B40075FF1DE1FEF772FF1AE1FEF7DFFF17E18B
:1013C400636A94F828201A6012E1636A228D1A6015
:1013D4000EE1636AA26A1A600AE1636A1B6884F810
:1013E400283005E1636A1B88238501E1636A1B6871
:1013F400A362FDE0022B40F0FB804FF48055C4F261
:10140400010528464FF4807100F080FB28464FF414
:10141400007100F079FB94F8213003F1FF33062BBF
:1014240000F2E080DFE813F0070039006B00DE0013
:10143400DE00DE009F0094F822204FEA02624FF49F
:101444001053C4F201031A614FF008025A639A68F8
:1014540042F480729A609A6842F001029A60FFF73F
:101464003BF84FF00803C4F202031A6842F0010289
:101474001A603368002BFCD04FF00800C4F202005D
:101484004FF0000100F0B6FA4FF41050C4F201001E
:101494004FF0000100F002F9A4E094F822204FEA92
:1014A400C2624FF41053C4F201031A614FF00902EF
:1014B4005A639A6842F480729A609A6842F0010210
:1014C4009A60FFF709F84FF00803C4F202031A68A0
:1014D40042F001021A603368002BFCD04FF0080080
:1014E400C4F202004FF0000100F084FA4FF41050EF
:1014F400C4F201004FF0000100F0D0F872E0FEF7F2
:10150400EBFF94F822304FEA036242EAC3624FF4DD
:101514001053C4F201031A6140F209125A634FF0E6
:101524000802C4F20202116841F0010111609A68D4
:1015340042F480729A609A6842F001029A603368B9
:10154400002BFCD04FF00800C4F202004FF0000161
:1015540000F050FA4FF41050C4F201004FF00001B3
:1015640000F09CF83EE094F823304FEA032394F80B
:101574002220D34204D1FEF7AFFFFFF787F831E012
:101584004FF05803C4F202031A6842F001021A60D1
:1015940094F823104FEA012194F82230C9184FF42B
:1015A4008040C4F2010089B200F03EFFFEF794FFD0
:1015B4004FF48043C4F201034FF001021A803368F0
:1015C400002BFCD04FF05800C4F202004FF0000191
:1015D40000F010FA4FF48040C4F201004FF0000113
:1015E40000F09EFEFFF766FA4FF0630384F82030A4
:1015F40042F21073013BFDD14FF48050C4F201005C
:101604004FF4007100F082FA5CE600BF10B4436846
:1016140023F4702323F480730A6813430A7943EA9A
:101624000223436084688A68CB681A434FF2FD73CF
:10163400CFF6F17304EA030342EA03034A7943EA67
:1016440042038360C26A22F470020B7C03F1FF330D
:10165400DBB242EA0353C36210BC704721B1836812
:1016640043F0010383607047836823F001038360C0
:10167400704700BF836843F008038360704700BF6E
:101684008068C0F3C0007047836843F0040383603C
:10169400704700BF8068C0F38000704721B1836841
:1016A40043F4A00383607047836823F4A00383603A
:1016B400704700BF70B4092910D9C66801EB410412
:1016C400A4F11E044FF0070505FA04F526EA050502
:1016D40003FA04F445EA0403C3600DE0066901EB70
:1016E40041044FF0070505FA04F526EA050503FA57
:1016F40004F445EA04030361062A10D8446B02F19A
:10170400FF3202EB82024FF01F0303FA02F324EAD2
:10171400030301FA02F143EA0102426322E00C2AC4
:1017240010D8046B02EB8202A2F123024FF01F03D4
:1017340003FA02F324EA030301FA02F143EA010281
:1017440002630FE0C46A02EB8202A2F141024FF08D
:101754001F0303FA02F324EA030301FA02F143EA42
:101764000102C26270BC704721B1436843F48063D4
:1017740043607047436823F480634360704700BF4D
:1017840070B4092910D9C66801EB4104A4F11E0400
:101794004FF0070505FA04F526EA050503FA04F4F3
:1017A40045EA0403C3600DE0066901EB41044FF010
:1017B400070505FA04F526EA050503FA04F445EAE3
:1017C40004030361836BC3F30154121B02F102028D
:1017D400D2B202EB82024FF01F0404FA02F423EAAD
:1017E400040301FA02F10B43836370BC704700BF2A
:1017F400836B23F4401301F1FF3143EA0153836304
:10180400704700BF036823F0010303604FF0000337
:10181400036043608360C3604FF06C03C4F202034F
:10182400984200F087804FF06C03C4F202039842A0
:1018340027D84FF03003C4F2020398425FD04FF030
:101844003003C4F2020398420DD84FF00803C4F2E7
:101854000203984241D04FF01C03C4F202039842A1
:1018640040F0A68042E04FF04403C4F202039842E1
:101874004ED04FF05803C4F20203984240F09880CF
:101884004FE040F21C43C4F2020398426DD040F290
:101894001C43C4F2020398420CD84FF08003C4F2F4
:1018A400020398424FD04FF48163C4F2020398427A
:1018B4007ED151E040F24443C4F20203984266D020
:1018C4004FF48B63C4F20203984269D04FF48663E9
:1018D400C4F2020398426BD150E04FF00003C4F20B
:1018E40002035A6842F00F025A6070474FF0000337
:1018F400C4F202035A6842F0F0025A6070474FF093
:101904000003C4F202035A6842F470625A607047DA
:101914004FF00003C4F202035A6842F470425A6062
:1019240070474FF00003C4F202035A6842F4702275
:101934005A6070474FF00003C4F202035A6842F43D
:1019440070025A6070474FF00003C4F202035A68F1
:1019540042F070625A6070474FF48063C4F202032D
:101964005A6842F00F025A6070474FF48063C4F221
:1019740002035A6842F0F0025A6070474FF48063E1
:10198400C4F202035A6842F470625A6070474FF41A
:101994008063C4F202035A6842F470425A6070478A
:1019A4004FF48063C4F202035A6842F470225A600E
:1019B400704700BF10B4026822F4FE4222F0F00225
:1019C4000C6A8B6844EA03030C6923434C69234380
:1019D4008C692343CC6923434C6A23438C6A234395
:1019E40013430360CB6843600B6883604B68C36038
:1019F40010BC704721B1036843F0010303607047D2
:101A0400036823F001030360704700BF4FF40053E1
:101A1400C4F202031A6802F038021A601A6840EA33
:101A240002021A60704700BF4FF40053C4F202036D
:101A34001A6822F010021A601A6840EA02021A6058
:101A4400704700BF2DE9F003CB7803F00F0513F0C6
:101A5400100F1CBF8B781D430B7833B3D0F800C034
:101A64004FF000034FF001064FF00F0806FA03F29F
:101A74000C8802EA0404944211D14FEA830708FA5D
:101A840007F92CEA090C05FA07F74CEA070CCF789A
:101A9400282F08BF446102D0482F08BF026103F118
:101AA4000103082BE2D1C0F800C00B88FF2B28D912
:101AB400D0F804C04FF000034FF001064FF00F08B8
:101AC40003F1080206FA02F20C8802EA04049442C2
:101AD40011D14FEA830708FA07F92CEA090C05FA31
:101AE40007F74CEA070CCF78282F08BF4461CC785D
:101AF400482C08BF026103F10103082BE0D1C0F8B0
:101B040004C0BDE8F003704701617047416170474C
:101B1400704700BF704700BF704700BF704700BFE9
:101B2400704700BF704700BF704700BF704700BFD9
:101B3400704700BF704700BF704700BF704700BFC9
:101B4400704700BF704700BF704700BF704700BFB9
:101B5400704700BF704700BF704700BF704700BFA9
:101B6400704700BF704700BF704700BF704700BF99
:101B7400704700BF704700BF704700BF704700BF89
:101B8400704700BF704700BF704700BF704700BF79
:101B9400704700BF704700BF704700BF704700BF69
:101BA400704700BF704700BF704700BF704700BF59
:101BB400704700BF704700BF704700BF704700BF49
:101BC400704700BF704700BF704700BF704700BF39
:101BD400704700BF704700BF704700BF70B4C37840
:101BE400002B3ED04FF46D43CEF20003DB686FEA66
:101BF4000303C3F30223C3F10402457805FA02F296
:101C04004FF00F0525FA03F581780D4015434FEA8F
:101C14000515027802F003044FEAC40405FA04F53A
:101C24004FEA92024FF46143CEF2000302F1C00284
:101C340053F822604FF0FF0101FA04F126EA01048F
:101C440005EA0101214343F8221002784FEA5211B8
:101C540002F01F024FF0010000FA02F243F82120C3
:101C640010E003784FEA531203F01F034FF0010111
:101C740001FA03F14FF46143CEF2000302F12002B2
:101C840043F8221070BC704721F0604121F07F01BD
:101C940001434FF46D43CEF200039960704700BFD7
:101CA4004FF48053C4F202031A6842F001021A602E
:101CB40059684FF00002CFF6FF0201EA02025A60AF
:101CC4001A6822F0847222F480321A601A6822F4AC
:101CD40080221A605A6822F4FE025A604FF0000211
:101CE4009A6070474FF48053C4F202031A6822F4D6
:101CF40080321A601A6822F480221A60B0F5803F9C
:101D040003D0B0F5802F11D108E04FF48053C4F212
:101D140002031A6842F480321A6070474FF4805309
:101D2400C4F202031A6842F4A0221A60704700BF8A
:101D34004FF48053C4F202035A6822F47C1240EA3E
:101D440002020A435A6070474FF06003C4F2422310
:101D5400186070474FF48053C4F202035A6822F0AB
:101D6400030240EA02025A60704700BF4FF48053F6
:101D7400C4F20203586800F00C0070474FF480531B
:101D8400C4F202035A6822F0F00240EA02025A60E6
:101D9400704700BF4FF48053C4F202035A6822F420
:101DA400E06240EA02025A60704700BF4FF4805379
:101DB400C4F202035A6822F4605242EAC0025A6032
:101DC400704700BF4FF48053C4F202035A6822F4F0
:101DD400404240EA02025A60704700BF39B14FF4F2
:101DE4008053C4F202035A691043586170474FF498
:101DF4008053C4F202035A6922EA00005861704712
:101E040039B14FF48053C4F202039A6910439861C4
:101E140070474FF48053C4F202039A6922EA000027
:101E24009861704739B14FF48053C4F20203DA6900
:101E34001043D86170474FF48053C4F20203DA6947
:101E440022EA0000D861704739B14FF48053C4F2DC
:101E54000203DA681043D86070474FF48053C4F229
:101E64000203DA6822EA0000D860704739B14FF4FF
:101E74008053C4F202031A691043186170474FF487
:101E84008053C4F202031A6922EA00001861704701
:101E94004FEA5013012B05D14FF48053C4F20203CF
:101EA4001B6807E0022B4FF48053C4F202030CBFFB
:101EB4001B6A5B6A00F01F0023FA00F000F00100C7
:101EC400704700BF10B582B04FF0000301934FF08C
:101ED40031042046FFF7DCFF019B03F1010301936A
:101EE40018B9019BB3F5A06FF3D14FF03100FFF7A0
:101EF400CFFF003818BF012002B010BD08B54FF461
:101F04004063C4F20003984269D04FF44063C4F2C2
:101F14000003984210D84FF48063C4F2000398423F
:101F240043D04FF40063C4F2000398424AD0B0F1A6
:101F3400804F40F087802CE04FF4A053C4F200039C
:101F4400984266D04FF4A053C4F20003984206D8D6
:101F54004FF48053C4F20003984273D14CE04FF421
:101F64003053C4F20103984206D04FF45053C4F2E4
:101F74000103984266D159E04FF400604FF001012B
:101F8400FFF762FF4FF400604FF00001FFF75CFFC2
:101F940008BD4FF001000146FFF768FF4FF0010054
:101FA4004FF00001FFF762FF08BD4FF002004FF051
:101FB4000101FFF75BFF4FF002004FF00001FFF754
:101FC40055FF08BD4FF004004FF00101FFF74EFF2D
:101FD4004FF004004FF00001FFF748FF08BD4FF039
:101FE40008004FF00101FFF741FF4FF008004FF0E8
:101FF4000001FFF73BFF08BD4FF010004FF0010157
:10200400FFF734FF4FF010004FF00001FFF72EFFF1
:1020140008BD4FF020004FF00101FFF727FF4FF0FC
:1020240020004FF00001FFF721FF08BD4FF40050DE
:102034004FF00101FFF708FF4FF400504FF000018B
:10204400FFF702FF08BD00BF038803F08F0303807E
:1020540003889BB2CA8813434A8813439BB2038004
:102064008B8883850B8803854FF0010383824FF4AB
:102074003053C4F201034FF45052C4F201029042AF
:1020840014BF00220122984214BF134642F00103F8
:102094000BB10B7A0386704770B4038C23F00103F1
:1020A4004FEA03434FEA13430384038C8488A4B2A6
:1020B400028B22F070024FEA02424FEA12420D886C
:1020C4002A4323F002034FEA03434FEA13434E88A3
:1020D4000D8946EA0505ADB245EA0303CD88858638
:1020E4004FF43055C4F201054FF45056C4F20106C2
:1020F400B04214BF00260126A84214BF354646F05C
:102104000105A5B14FF6F77503EA05054B891D4393
:102114004FF6FB7305EA03038D882B4347F6FF450F
:1021240004EA0505CC8989890C43A4B22C43848034
:102134000283038470BC704770B4038C23F01003D3
:102144004FEA03434FEA13430384038C8488A4B205
:10215400028B22F4E0424FEA02424FEA12420D8817
:1021640042EA052292B223F020034FEA03434FEAE6
:1021740013430D8943EA05134D8843EA05139BB2C3
:10218400CD8805874FF43055C4F201054FF45056FD
:10219400C4F20106B04214BF00260126A84214BFAF
:1021A400354646F00105CDB14FF67F7503EA0505C6
:1021B4004B8945EA03154FF6BF7305EA03038D887F
:1021C40043EA05139BB247F2FF3504EA05058C89FF
:1021D40045EA8405CC8945EA8404A4B28480028358
:1021E400038470BC704700BF70B4038C23F4807305
:1021F4004FEA03434FEA13430384038C8488A4B255
:10220400828B22F070024FEA02424FEA12420D889A
:102214002A4323F400734FEA03434FEA13430D891F
:1022240043EA05234D8843EA05239BB2CD8885877D
:102234004FF43055C4F201054FF45056C4F2010670
:10224400B04214BF00260126A84214BF354646F00A
:102254000105CDB14FF2FF7503EA05054B8945EA47
:1022640003254FF6FF3305EA03038D8843EA05236C
:102274009BB244F6FF7504EA05058C8945EA04150A
:10228400CC8945EA0414A4B284808283038470BC9C
:10229400704700BF70B4038C23F480534FEA0343A8
:1022A4004FEA13430384038C8488A4B2828B22F400
:1022B400E0424FEA02424FEA12420D8842EA052206
:1022C40092B223F400534FEA03434FEA13430D89B8
:1022D40043EA05334D8843EA05339BB2CD88A0F821
:1022E40040504FF43055C4F201054FF45056C4F237
:1022F4000106B04214BF00260126A84214BF354689
:1023040046F001053DB14FEA84444FEA944489897B
:1023140044EA8114A4B284808283038470BC70472D
:1023240029B103889BB243F00103038070470388FB
:1023340023F001034FEA83534FEA9353038070471A
:1023440049B1B0F844306FEA43436FEA53439BB258
:10235400A0F844307047B0F844304FEA43434FEAA2
:102364005343A0F84430704722B183899BB2194388
:102374008181704783899BB223EA0101818170477F
:1023840022B183899BB219438181704783899BB2AF
:1023940023EA010181817047038923F007034FEA8F
:1023A40003434FEA13430381704700BF038B23F0B9
:1023B40008034FEA03434FEA134341EA0303038349
:1023C400704700BF038B23F400634FEA03434FEAD3
:1023D400134343EA01239BB203837047838B23F0A7
:1023E40008034FEA03434FEA134341EA0303838399
:1023F400704700BF838B23F400634FEA03434FEA23
:10240400134343EA01239BB283837047838823F0F9
:1024140070034FEA03434FEA1343838083889BB2DC
:1024240041EA030383807047818470476FEA0101A6
:1024340089B20182704700BF43F60C03C4F2010362
:102444001A88F0B412F4005212D00A2851D043F67C
:102454000002C4F20102B2F800C01CF0800FFAD0EE
:1024640043F6040380B2C4F201031880F0BC704741
:1024740041F21804C4F20204266840F6040146F04E
:10248400040727602568C4F2010145F001062660AF
:10249400276843F6100647F4804525600F6843F625
:1024A400140527F0F0040C600F6843F6080447F0A5
:1024B400B0070F600F684FF00C0C27F470670F60C3
:1024C4000F68C4F2010647F480670F60C4F2010587
:1024D40040F24131C4F201043280A3F800C02A80E2
:1024E40021801A880A281FFA82FC4CF400511980B2
:1024F400ADD143F60C03C4F201031A8812F400525E
:102504000FD043F60002C4F20102138813F0800FC7
:10251400FBD043F60401C4F201014FF00D020A801E
:1025240095E741F21804C4F20204266840F6040157
:1025340046F0040727602568C4F2010145F001064E
:102544002660276843F6100647F4804525600F6827
:1025540043F6140527F0F0040C600F6843F60804F2
:1025640047F0B0070F600F6840F2413C27F47067F2
:102574000F600F68C4F2010647F480670F60C4F26D
:1025840001054FF00C01C4F20104328019802A8045
:10259400A4F800C01A8891B241F4005CA3F800C00A
:0825A400AFE700BF101C7047F7
:04000005080001E40A
:00000001FF
