:050000000210000132B6
:07000B002001013202200B6D
:020013000141A9
:07001B002003013202201B4B
:07002300200401320220233A
:10002B002005013202202B2000091559117211569F
:10003B0002103802200320020C20070C0559117204
:10004B001164021038022013021D747E007F0030F1
:10005B00B2F9DEFBDFF9C289327E007F0030B3F9E3
:10006B00DEFBDFF9C28B32E559B4FF02740AB40B25
:10007B0001E4F559FF900D13DF03900D1CDF039086
:10008B000D26DF03900D34DF03900D41DF03900D40
:10009B004EDF03900D5CDF03900D66DF03900D7058
:1000AB00DF03900D78DF03900D80121D381211378E
:0100BB002222
:1000C00001F201E821A521D6410B61D2810B81C348
:1000D000C140A1E7C11CC18861FFC1D2E113E10F9A
:1000E000E130E153E17B222275A001A82418E2B29D
:1000F000E0F271B3EF600DBE001271A77F06E2F36C
:100100001819DFFAE5242406F524E4229E8F308CAA
:100110002F50098E308B2FF404C8C9C8FFC233BDDD
:100120000002D23371C4BF0B0040027F0A752A005F
:1001300071047F04792E749EC39CD4CC7001FCB4EE
:100140005000303318B331545008052A7F01710430
:1001500051BB41ACE237D4F71819DFF822E2FEE4D4
:100160003499972ED4F71819DFF34011B278792E0D
:100170007F04749A972400D4F719B3DFF5782B7FA6
:1001800000E670080F0F08B82FF741F4B4100050C4
:10019000010FE530C39F600B4009F530713E752AB1
:1001A0000041AC41EE71B3E524240CF524EEC2D538
:1001B000C39F600A4003EB8001EC6001B322BD00E5
:1001C000F57F04181818191919E2FEE39E70EA0861
:1001D00009DFF6D2D52271B1BE000241F48D2FEFB6
:1001E00060F92E20E70510D70641EE500241DD945C
:1001F00081FE51C77B04AC018C01E3FA7174EAC43F
:1002000071741CDBF38E308D2F416C71B38D2FBF59
:10021000000651DDE4D2E322EE60C09F20E70450E7
:100220000441EE50C82481F53071C47A34AB0075B6
:100230002A007DFFD38B00792E7F045017E2FEE465
:1002400034999E27D4F71819DFF30D40E8E794019D
:10025000F7B380E1315477008A00A6050A7F017167
:100260003CBA3ECED5300241EE752A007834E6FE27
:10027000600351BB18087408F928F8B6050040134C
:10028000D3E41836D4D630E409D9F518760151BB39
:10029000800619E9C3C898F8792BE6C408D6420647
:1002A000F70809B92FF4EE700375300071A789249F
:1002B0007830E6F31819B82AF9E4220530E53070F1
:1002C000F9D0E0D0E041DDC0017932E2540FF7E22D
:1002D000C4540F19F71819B92AF1D00122782E74D5
:1002E00099F618B82AFB7530FF51ACD2E12251F4CF
:1002F000E4D2E02251FB51ACD2E222E4783DF61880
:10030000B829FB227C00C3EF60229402501FC0007A
:10031000C001792E782DECD7C4FCE7D6C4F71819A4
:10032000B92AF7E7C4540FF7D001D00022FFE4C583
:100330002AC52BC52CC52DC52EFC80CB7C00C3EF58
:1003400060229402501FC000C001782A792BE6C4B5
:10035000F6E7C4D6F70809B82EF7ECC4D654F0FC7B
:10036000D001D00022FFE4CCC52EC52DC52CC52B55
:10037000C52A80CB540FFF783C7932E4F533182638
:10038000D430E403180608D68FF0E7A475F00A8489
:10039000C5F026D430E40205F008D618E5F019B906
:1003A0002ADC2533D4F62275A001A824740628F986
:1003B0002251FB71A7E2FFE3FE1819E2FCE3FB6C9C
:1003C000FD181922C000782EE3F61918B82AF9D0C2
:1003D000002291A8C083C082E0D1B6401271F240E1
:1003E0000EC2E5B44803D38001C3D082D08322A3D8
:1003F00080E6C2E5B44700400122B44100B3227B4D
:10040000007948D140740DF390004851FB91A891B8
:10041000AE927878347E7FD2D5D1B45007540F9104
:1004200081A380F5B42E0C205163D251B834F2D29E
:100430005280EE20D557B465028003B4453391A7AE
:1004400091AE9250D1B45045540FFDA3D1B4500D8C
:10045000540FCD75F00AA42DFD50F07DFFED305006
:1004600009C39EF40440097401222E500374022231
:10047000CE8E30B8340251FBE524C3940CF52441F0
:100480006CC2D5700BB83408305204DE0274FF22FF
:10049000205302C2522052F32051010E2053F0B8D3
:1004A0003D02D253F60822A3E0B4201680F9B4E34B
:1004B00002800EB42B028009B4E5028003B42D0241
:1004C000D3A32271B33104EFFE51C7782BE525FB8E
:1004D0006049B4F0005073EE70027E80EBC4540F9C
:1004E000FAB1B0CAC39AFF50067D3FB1E5A11BBA6D
:1004F00000071FB1D2B1DF8006B1D2EAFFB194EBA1
:10050000540FFA60BDB1DBB1B9B50203EAA1C9501D
:10051000FBCAC39ACAB1C9EAFFA194EE7004B1E361
:10052000A1DF7BF074772E402194F7401DB1D4B148
:10053000B0B40802A194B194B1A66057B1DB7F01B9
:10054000B194704FB1A6604B80F4B1D47F01B194E7
:10055000B1DBEB540F6006FF1FB1948002B13EB1D6
:10056000E37D45B1E5EE600414B48005B1E3E480B9
:100570000C40067D2BB1E58004B1D7F404C2E7F846
:100580007A0079487B00D1407848E2FDB1E508E87F
:10059000B501F722EF600EE64430081FFDB1E5E437
:1005A000B833F1745522A900E7700409B933F92270
:1005B000EEC394805001E4FF22C374809E5001E496
:1005C00022EF60FCB1E31F80F8FFEF60F3B1DF1FA3
:1005D00080F8B1C1EC600C7D2D800A7D2E80067DF7
:1005E0003080027D20C1C171D29233D1B4B3402892
:1005F0007B0079008015A389008B02D1B4400C30B8
:10060000331671F24003A3800F240975F00A3033CA
:100610000375F010D11F50DEE492E12275F00AC09C
:10062000E0C0F0E9A4F9EBABF0D0F0A4A2D292D5EF
:100630002BFBD0E072D54007540F29F9E43BFB2295
:10064000E4902710D15D9003E8D15D900064D15D06
:1006500090000AD15D900001D15D6020227EFF0EE6
:10066000CAB58300CA4012C89582C8CA9583CA50C9
:10067000EEC82582C8CA3583CA4E60E074302E8B1E
:10068000A0F309B900010B22B1E3A2369233EBD1FA
:10069000ABEBD1ACC233E9D1ABE9D1AC7D48A1E53C
:1006A000C2332490D43440D4FD80F3C4540F70F08E
:1006B0003033ED2291A8B43A00400122B43000B3A7
:1006C00022C0E0C000A850EDF60550D000D0E022D6
:1006D00001E7E4FBF9A82475A001E2C39481FC18AA
:1006E000E270ED40170CE89405F808E2C411D4401C
:1006F000DFDC028007E211D440D6DCEE74068018FD
:1007000074FA2524B400004045F524F97B0122D178
:10071000FCE141F100E141E4A8247A018AA02840EB
:100720002DF524E22218B8FF011A19B9FF011B2286
:10073000F117AB83A9828AA0E28BA0F30809DCF64B
:10074000227C068AA0E28BA0F3F125DCF62290073A
:100750008901E6F1179481500DD1FC900760E17B8F
:1007600000000000000094075010F404FB1818E289
:1007700054F0F2DB0122E4F2DBF422F1008BA07BE7
:1007800006E493F3A319DBF922412D535441434B63
:1007900000C0009007E77A0A7B2F0BF1BA50FBF1FB
:1007A000D3EBF608A3A3A3A3DAEED0007A09E6B44C
:1007B0003005762008DAF70AEA22E493CCC39CFCE1
:1007C000740193CD9DFD740293CE9EFE740393CF6E
:1007D0009FFF22E4932CFC7401933DFD7402933E31
:1007E000FE7403933FFF2200CA9A3B00E1F50580A7
:1007F00096980040420F00A086010010270000E8F4
:10080000030000640000000A00000001000000C0B6
:1008100003C001908000F074FA121C2A74FA121CB2
:100820002A7402120A2B78401207917840900048EF
:100830007F0AE6F008A3DFFA740DF0900048120476
:100840000BD001D00312070F22C001C003120713FF
:10085000D002D00012071312020BA8247A0112074B
:10086000131201D6900CE312077B1200E8227400E9
:10087000908000F0121D3812111843616C69627289
:100880006174696E67007F05C007120A1E742E121C
:100890001D47D007DFF2740079607B0012080F74E7
:1008A0008079687B0012080F78607A0079687B0095
:1008B00012084979787B0012070F900CE912077B28
:1008C000900CEF12077B1201D678607A00120713A2
:1008D0001201D679887B0012070F900CE312077B78
:1008E00078887A0012071312020BA8247A011207E3
:1008F000131201D678787A001207131201D6900CE1
:10090000F512077B12020B79807B0012070FE4902F
:100910008000F0121D38227440F52179707B00129E
:10092000080F78607A0079707B0012084978807A25
:10093000001207131201D68524827583011582E007
:1009400005826002E4F0E0B480004002E4F0754EFD
:100950006E900D016016B47B004011754E75900DC0
:1009600007B47E004006754E6D900D0D12077B1288
:1009700001D675404C75412075423D754320754F39
:1009800048755044752553E524C39405F81204C3F3
:100990007400121D4278407F101211420210387408
:1009A00000F52179707B0012080F78607A00797069
:1009B0007B0012084978787A0012071312020B9014
:1009C0000CF512077B1201D68524827583011582EE
:1009D000E005826002E4F0E0754E70900CFB600B65
:1009E000B478004006754E6E900D0112077B12011F
:1009F000D675404375412075423D754320754F467D
:100A0000755044752553E524C39405F81204C37446
:100A100000121D4278407F101211420210387FF8F8
:100A20007E337D10DFFEDEFCDDFA22447C90800107
:100A3000F0C0E0758A00758C00E589D2E0C2E1D291
:100A4000E2C2E3F589E588D2E4C2E5F588D0E05456
:100A5000F3F0511ED2E2F0E0FCE58AFDE58CFEE405
:100A6000A28D33FF227540437541484430F54275ED
:100A7000432078447946BF070040197F08E7BF0646
:100A800003762E08F60809DFF4754D4D754E48754E
:100A90004F7A8033BF040040197F08E7BF03037615
:100AA0002E08F60809DFF4754D4B754E48754F7AE0
:100AB0008015754420087F08E7F60809DFFA754DB0
:100AC00048754E7A754F2022C0E0120A2B784412E6
:100AD0000791FFD0E05403120A657400121D42789A
:100AE000407F101211427400120B2C74007944756F
:100AF0002522120B817405120B2CE8C39473F8EABB
:100B000094005002E4F8FA7405794A752513120B23
:100B100081754056754141754252754320744012AB
:100B20001D4278407F1012114202103844182323CE
:100B300023FA747C908001F0C2E4F07F07CA33CAC4
:100B400092E6C2E5F0D2E5F0DFF37A007F05C0E07F
:100B5000908000E013CA33CA908001D0E0C2E5F073
:100B6000D2E5F0DFE978007F08C0E0908000E01374
:100B7000C833C8908001D0E0C2E5F0D2E5F0DFE9EB
:100B8000228950C0E01203FF900CB3D0E075F0064C
:100B9000A42582F5825002058312077B1201D6E557
:100BA00024C39405F81204C3227403120B2C74039B
:100BB0007944752522120B817407120B2C74077966
:100BC0004A752513120B8175404975414E75425483
:100BD0007543207400121D4278407F101211427438
:100BE00002120B2C74027944752522120B817406B3
:100BF000120B2C7406794A752513120B8175404926
:100C000075414E7542547543207440121D42784020
:100C10007F101211427F1474FA121C2ADFF902109D
:100C2000387401120B2C74017944752522120B8142
:100C30007404120B2CE8C39473F8EA94005002E495
:100C4000F8FA7404794A752513120B8175404575BD
:100C500041587542547543207400121D4278407FFC
:100C6000101211427400120B2C7400794475252265
:100C7000120B817405120B2CE8C39473F8EA9400EC
:100C80005002E4F8FA7405794A752513120B817540
:100C900040567541417542527543207440121D42C1
:100CA00078407F101211427F1474FA121C2ADFF967
:100CB0000210387E00000703527E00000703167EF4
:100CC00000000002367E00000703167D0000005081
:100CD000307D0000005030000000000000000000E7
:100CE0000000008100000000108100000000208151
:100CF00000275941317700000050948D000000001A
:100D0000108A00000000108700000000108400001E
:100D10000000105465726D696E616C00467271203E
:100D2000436F756E740046727120436F756E742048
:100D300054544C0046727120436F756E74204647C0
:100D40000046727120436F756E74204C43004672EA
:100D50007120436F756E7420414C4500566F6C7462
:100D60007320494E5400566F6C74732045585400DC
:100D70004C204D657465720043204D6574657200AA
:0A0D800043616C69627261746500E2
:10100000E4F5A8F559F521F52014F55AF55BF5B08E
:1010100075CAD9F5CB75CCD9F5CD75C8347598504E
:10102000755301755402755501D2A8D2AAD2AF12D8
:101030001D5B12086E1200727581CF90200075241E
:1010400080E559FF70020183DF04E4020AC8DF056E
:101050007480020AC8DF057401020AC8DF05740241
:10106000020AC8DF057403020AC8DF03020BA9DF06
:1010700003020C21DF03020917DF0302099F120894
:101080006E80B55190319C743E51795162B44106E5
:101090003197514180EFB444063197713980E4B4FF
:1010A00045063197716580DBB447063197B15D80A5
:1010B000D2B44804319780CBB449063197719780F8
:1010C000C4B44C063197B13080BBB450063197B1EF
:1010D0006180B0B452063197B15F80A7B453071254
:1010E000119771BA809FB446063197717A8096B491
:1010F0009F03020000B40D93808B8582578583582F
:10110000D083D082E493A36004517980F7C082C079
:101110008385578285588322858257858358D0835B
:10112000D082E493A36005121D4780F6C082C0837D
:1011300085578285588322E4936006121D47A38059
:10114000F622300609E6517908DFFA319C22E612D0
:101150001D4708DFF922E05179A3B40DF9740A5153
:101160007922755040752500E524C39405F81204D2
:10117000C3A850E4F67840E6517908E670FA742086
:101180005179742051797420517974205179740DFA
:101190005179740A5179225179319C22740D517917
:1011A000740A517922C0E0C431ACD0E0540FC3942A
:1011B0000A40022407243A517922780833C0E074A7
:1011C0002012127974201212797430500104121214
:1011D00079D0E0D8E712119C22E58331A5E5823170
:1011E000A57420517922E524C39405F58275830105
:1011F0007F06E031A50582DFF9740D5179740A513B
:101200007922510E4007C4FB510E40012B22511A86
:101210004007C0E0EA5179D0E0225162B49F02D386
:1012200022B40D02D322FAB43A005008B430004080
:10123000E9943022B4470050E1B4410040DC9437D7
:101240002231D951024008F58351024002F5823122
:101250009C227405517978405162F608B850F978AB
:1012600040222007083098FDC298E59922C2AA3092
:1012700098FDC298E599D2AA22200708F5993099DD
:10128000FDC29922C2AAF5993099FDC299D2AA222B
:1012900011FA0E41204164647265737320696E70A7
:1012A00075740D0A442044756D7020617320686563
:1012B000780D0A4520456E746572206865780D0AC0
:1012C0004620456E74657220666C6F61740D0A4726
:1012D00020476F20284C6F616420616E6420527536
:1012E0006E290D0A482048656C700D0A4920496E28
:1012F0007465726E616C206D656D6F7279206475B6
:101300006D700D0A4C204C6F616420636D64206623
:10131000696C650D0A502050726F6772616D2052C2
:101320004F4D0D0A522052756E0D0A5320534652EE
:101330002064756E700D0A0022C082C083C002C096
:10134000037B107A1031D9E031A574205179A3DAEA
:10135000F6319CDBEE319C5162B49FE5D003D002A4
:10136000D083D08222C082C08331D951024006F09E
:10137000A3319C80F4D083D08222C082C0839000AD
:101380004851625179F0A3B40DF790004812040B54
:1013900031E6D083D08222C0007800E431A5E83164
:1013A000A574205179E631A57420517908E8540FCD
:1013B00070F3319CE870E4D00022C0D0C2D3C2D414
:1013C000C0E0C000C0E01210FA0D0A5346522020BF
:1013D00044372044362044352044342044332044CC
:1013E000322044312044300D0A2D2D2D2D2D2D2D50
:1013F0002D2D2D2D2D2D2D2D2D2D2D2D2D2D2D2D1D
:101400002D2D2D2D2D0D0A4143432000D0E012112A
:10141000BA1210FA4220202000E5F01211BA121080
:10142000FA4450482000E5831211BA1210FA4450D1
:101430004C2000E5821211BA1210FA494520200012
:10144000E5A81211BA1210FA4950202000E5B8128E
:1014500011BA1210FA5030202000E5801211BA1291
:1014600010FA5031202000E5901211BA1210FA50F3
:1014700032202000E5A01211BA1210FA50332020B9
:1014800000E5B01211BA1210FA50434F4E00E58732
:101490001211BA1210FA5053572000E5D01211BAA7
:1014A0001210FA5342554600E5991211BA1210FA79
:1014B00053434F4E00E5981211BA1210FA535020C0
:1014C0002000E5811211BA1210FA54434F4E00E584
:1014D000881211BA1210FA5448302000E58C12110B
:1014E000BA1210FA5448312000E58D1211BA1210C8
:1014F000FA544C302000E58A1211BA1210FA544CFA
:10150000312000E58B1211BA1210FA544D4F4400ED
:10151000E5891211BAD000D0E0D0D0227B405152E0
:10152000E6F0A308E8645070F7DBF3742E517922DB
:10153000C082C083C000C003C00411FA4C6F616454
:10154000696E67202E007C08B11CDCFC74065179A2
:10155000319CD004D003D000D083D08222B130E4BB
:1015600073B1D6B4946F12186940F6121CA940F1F9
:10157000E553147012121913E5551470051219234E
:1015800080DF121A0880DA147012121913E555144C
:10159000700512196F80CA121A5F80C514700FE5AA
:1015A0005514700512199B80B8121A9780B31470E5
:1015B00012121913E5551470051219C880A3121AD6
:1015C000CF809E121913E555147005121B468091A9
:1015D000121B46808C2211FA0E2020202D2D2D2D3D
:1015E0002D2D2D2D2D2D2D2D2D2D2D2D2D20202D45
:1015F0002D2D2D2D2D2D2D2D2D2D2D2D2D2D2D2D1B
:1016000020202D2D2D2D2D2D2D2D2D2D2D2D2D2D24
:101610002D2D2D0D0A2020207C2020416374696F20
:101620006E202020202020207C20207C202045456A
:1016300050524F4D2073697A6520207C20207C20F9
:10164000204D6F64652020202020202020207C0D4C
:101650000A2020202D2D2D2D2D2D2D2D2D2D2D2D04
:101660002D2D2D2D2D20202D2D2D2D2D2D2D2D2DC4
:101670002D2D2D2D2D2D2D2D20202D2D2D2D2D2DB4
:101680002D2D2D2D2D2D2D2D2D2D2D0D0A202020F4
:101690007C2020546573742065726173656420201A
:1016A0007C20207C2020344B202020202020202043
:1016B0002020207C20207C2020427974652020205E
:1016C0002020202020207C0D0A2020207C20204665
:1016D000696C6564756D7020202020207C20207C42
:1016E0002020384B20202020202020202020207C5B
:1016F00020207C2020506167652020202020202091
:1017000020207C0D0A2020207C20205363726565F8
:101710006E64756D702020207C20207C2020313666
:101720004B202020202020202020207C20207C20D6
:1017300020202020202020202020202020207C0D60
:101740000A2020207C20205665726966792020209E
:10175000202020207C20207C202033324B20202081
:10176000202020202020207C20207C2020202020C1
:10177000202020202020202020207C0D0A20202036
:101780007C202050726F6772616D20202020202005
:101790007C20207C202036344B202020202020203C
:1017A0002020207C20207C20202020202020202081
:1017B0002020202020207C0D0A2020202D2D2D2DC2
:1017C0002D2D2D2D2D2D2D2D2D2D2D2D2D20202D63
:1017D0002D2D2D2D2D2D2D2D2D2D2D2D2D2D2D2D39
:1017E00020202D2D2D2D2D2D2D2D2D2D2D2D2D2D43
:1017F0002D2D2D0D0A00785412184C0812184C7813
:101800005311042212184C7408121279121262B485
:101810009A0CE61460EE74201212791680E6B49BDE
:101820000DE6940560DE74201212790680D6B49C11
:1018300008E8945560CE0880CBB49D08E8945360C6
:10184000C31880C0B49F0122B494B922740B121241
:1018500079E62422121279E8945375F013A4242413
:1018600012127974FB12127922121C591210FA0BFF
:101870002A23496E736572742000E55414700912AE
:1018800010FA344B007552101470091210FA384BCC
:101890000075522014700A1210FA31364B0075523E
:1018A0004014700A1210FA33324B007552801470D3
:1018B0000A1210FA36344B007552001210FA2064E6
:1018C000657669636520616E6420737472696B6507
:1018D000203C456E7465723E2000121262B49F0275
:1018E000D3221210FA0B2A2320202020202020208F
:1018F00020202020202020202020202020202020E8
:101900002020202020202020202020202020200DEA
:1019100000C3221210FA0B2A2357616974202E2E5D
:101920002E0022121CB9B4FF0EA3E58270F5E583E8
:10193000B552F0121C5922121C591210FA0B2A230C
:10194000427974652061742000E5831211A5E58257
:101950001211A51210FA206E6F7420657261736502
:1019600064203C456E7465723E200012126222743F
:1019700003121279121CB91211A57420121279A344
:10198000E582540F700312119CE58270E7E583B580
:1019900052E27404121279121C5922121CB912114B
:1019A000A57420121279A3E582540F700312119CC2
:1019B000E58270E712119C121262B49F028005E565
:1019C00083B552D7121C5922C0007556001212520C
:1019D0008651121CB9B5511D08E8B45003121252B9
:1019E000A3E58270EBE583B552E6121C597406122A
:1019F0001279D00022121CCE50DE121C597406122D
:101A00001279121262D000227430121C31E5831256
:101A10001C31E4121C31B4FF0EA3E58270F4E5839F
:101A2000B552E5121C5922121C591210FA0B2A2326
:101A3000427974652061742000E5831211A5E58266
:101A40001211A51210FA206E6F7420657261736511
:101A500064203C456E7465723E200012126222744E
:101A6000031212797430121C31E583121C31E41216
:101A70001C311211A57420121279A3E582540FB4FF
:101A8000000712119CE58270E5E583B552D6740417
:101A9000121279121C59227430121C31E583121C67
:101AA00031E4121C311211A57420121279A3E582BF
:101AB000540F701212119CE58270E612119C1212E2
:101AC00062B49F028005E583B552CC121C5922C036
:101AD000007556001212527430121C31E583121C2C
:101AE000318651E4121C31B5511D08E8B45003127F
:101AF0001252A3E58270EAE583B552DB121C5974D9
:101B000006121279D00022121CCE50DE121C59741B
:101B100006121279121262D000229000007556004F
:101B20007430121C31E583121C31E4121C31044262
:101B300056A3E58270F4E5567005E583B552E1C31E
:101B4000E5566001D322121B1A504E74AC121C31A0
:101B50007480121C31E4121C31E4121C31E4121C9A
:101B60002AE4121C2AE4121C2A121B1A502B121CE3
:101B7000591210FA0B2A23436F756C64206E6F7430
:101B80002065726173652063686970203C456E74DE
:101B900065723E200012126222C0009000001212F4
:101BA000527440121C31E583121C31E582121C3143
:101BB000E6F551121C317410121C2A121CB9B551D1
:101BC0002208E8B45003121252A3E58270D3742E97
:101BD000121279E583B552C9121C59740612127992
:101BE000D00022C0E0121C5974061212791210FAA9
:101BF0000B2A234572726F722061742000E58312F4
:101C000011A5E5821211A57420121279E551121165
:101C1000A57420121279D0E01211A5121262D00020
:101C200022C0077F64DFFED00722CF9121DFFCCFE7
:101C300022C007C0027A08339293A294CF33CFD246
:101C40009200C292DAF1EFD002D00722D290740A49
:101C5000912AD291740A912A22C2917401912A7513
:101C60009010740A121C2A2274AC121C3174531284
:101C70001C317400121C317400121C31B469012231
:101C80001210FA0B2A23496E697469616C697361D9
:101C900074696F6E204572726F72203C456E746578
:101CA000723E2000121262D322900000121C4C12CD
:101CB0001C685004121C59D3227420121C31E58375
:101CC000121C31E582121C317400121C3122C0E05A
:101CD0001210FA0D2020204572726F72206174205C
:101CE00000E5831211A5E5821211A5742012127964
:101CF000E5511211A57420121279D0E01211A5122B
:101D0000119C0556E556B41000B322C0077F00DFD2
:101D1000FED00722C082C0839080004521D2E5F02A
:101D2000C2E5F0D083D08222C0E0C4540FB114D0F9
:101D3000E0540FB114B10B227401B1287410121CBD
:101D40002A224480B12822C0E0C4540FD2E4B11446
:101D5000D0E0540FD2E4B114B10B227403B114B12A
:101D60000B7428B1287428B128740CB128B13874C8
:101D700006B12822C0D0C0E0C2D3C2D4C000A8811E
:101D8000181818E55B04600AE6B55B7418E608B538
:101D90005A6E7407121279E612127918E612127945
:101DA0000808E612127908E6121279E5F0121279A3
:101DB000E581C39405121279E582121279E5831246
:101DC000127908E61212797801E612127908B82021
:101DD000F8C082C0837820E0121279A3D8F91212D9
:101DE00062B45204D2B3800EB47308D2B3E4C0E03C
:101DF000C0E032B46911755AFF755BFFD083D082A1
:101E0000D000D0E0D0D032B46F0C121262F55A126A
:101E10001262F55B80E6B4410512124180C0B449FC
:101E20000512139780B8B4440512133980B0B45327
:101E3000ADD083D082D000D0E0D0D0C0D0C0E0C23E
:0E1E4000D3C2D4C000C082C0831213BA8090F7
:00000001FF
