:0200000001BB42
:0200030001807A
:1000800005511196118801E07E007F0030B2F9DE43
:10009000FBDFF9C28932E551B40501E4F551FF9067
:1000A0000E10DF03900E1ADF03900E22DF03900E76
:1000B0002ADF03900E349156916D22E4C294C295CA
:1000C000F5A8F8F6D8FD758190D2A8D2AF12080035
:1000D000714E9177E49161900E43916D714E11963E
:1000E0009190AF51DF0431F480F6DF04515F80F06E
:1000F000DF067401310780E8DF067402310780E013
:10010000316C75510180D7C294C295717878445191
:10011000D3FF71C67440916178407F10916622C010
:1001200001919074FA717174FA7171740071787838
:100130004051D3784079277F0AE6F70809DFFA743F
:100140000DF37927120B18D001120DAB22C001124A
:100150000DAFD000120DAF12092FA824120DAF124F
:1001600008FA900E79120DF612080F22C294C29569
:100170007F05C007714E742E9142D007DFF4C295FF
:100180007965311F7440916178407F109166D295F6
:10019000796D311FC2957440916178407F109166EE
:1001A0007865796D314D797D120DAB900E7F120D12
:1001B000F6900E85120DF61208FA7865120DAF1240
:1001C00008FA798D120DAB900E79120DF6788D121A
:1001D0000DAF12092FA824120DAF1208FA787D1264
:1001E0000DAF1208FA900E8B120DF612092F7985B9
:1001F000120DAB22C294C2957975311F786579755D
:10020000314D787D120DAF12092F900E8B120DF625
:100210001208FAA82418E6086002E4F6E6754E70A3
:10022000900E91600BB478004006754E6E900E975C
:10023000120DF61208FA75404375412075423D755E
:100240004320754F46755044752553E524C39405E6
:10025000F8120BC67440916178407F10916622D2EB
:1002600094C2957975311F78657975314D7885120D
:100270000DAF1208FAA82418E6086002E4F6E6B406
:1002800080004002E4F6754E6E900E976016B47BC7
:10029000004011754E75900E9DB47E004006754E5F
:1002A0006D900EA3120DF61208FA75404C754120A0
:1002B00075423D754320754F48755044752553E58B
:1002C00024C39405F8120BC67440916178407F10E6
:1002D000916622C000900E517A0A7B2F0B51FC5080
:1002E000FB7115EBF608A3A3A3A3DAEED0007A09FD
:1002F000E6B43005762008DAF70AEA22E493CCC3A4
:100300009CFC740193CD9DFD740293CE9EFE7403FC
:1003100093CF9FFF22E4932CFC7401933DFD740264
:10032000933EFE7403933FFF22ECF8EDF9EEFAEFF3
:10033000FB71417141EC28FCED39FDEE3AFEEF3BDB
:10034000FFEC2CFCED3DFDEE3EFEEF3FFF227FF982
:100350007E337D10DFFEDEFCDDFA227FF97E337D09
:1003600002DFFEDEFCDDFA22C0077F64DFFED0077D
:1003700022CF7168DFFCCF22C0E0D293C292D2922A
:10038000A2E09290A2E19291758A00758C00E589B5
:10039000D2E0C2E1D2E2C2E3F589E588D2E4C2E567
:1003A000F588D0E0600B146008C293715BD2938033
:1003B00006C293714ED293E580FCE58AFDE58CFE82
:1003C000E4A28D33FF2275404675413D7542207889
:1003D000437945BF070040197F09E7BF0603762E22
:1003E00008F60809DFF4754D4D754E48754F7A8053
:1003F00030BF040040197F09E7BF0303762E08F6DB
:100400000809DFF4754D4B754E48754F7A80120818
:100410007F09E7F60809DFFA754D48754E7A754F82
:100420002022C0077F00DFFED00722D2E5F5A0C260
:10043000A522C0E0C4540F912BD0E0540F912B9112
:100440002222C0E0C4540FD2E4912BD0E0540FD24A
:10045000E4912B912222740191327F009122DFFCE2
:10046000224480913222E6914208DFFA22E493602E
:10047000059142A380F7227403912B912274289155
:100480003274289132740C91329156740691322252
:0B04900078407F107420F608DFFC228B
:100800007524FF752500755040752740222222A8C7
:100810002418E6B2E0F651D4EF600DBE001251CBC1
:100820007F06E6F71819DFFAE5242406F524E4220A
:100830009E8F308C2F50098E308B2FF404C8C9C87E
:10084000FFC233BD0002D23351E5BF0B0040027F2F
:100850000A752A0051287F04792E749EC39CD4CC3B
:100860007001FCB45000303318B311785008052AD9
:100870007F01512831DF21D0E637D4F71819DFF88E
:1008800022E6FEE43499972ED4F71819DFF34011CD
:10089000B278792E7F04749A972400D4F719B3DFC5
:1008A000F5782B7F00E670080F0F08B82FF7411876
:1008B000B4100050010FE530C39F600B4009F530C4
:1008C0005162752A0021D0411251D4E524240CF53F
:1008D00024EEC2D5C39F600A4003EB8001EC6001A7
:1008E000B322BD00F57F04181818191919E6FEE7A0
:1008F0009E70EA0809DFF6D2D52251D2BE0002412D
:10090000188D2FEF60F92E20E70510D70641125001
:100910000241019481FE31EB7B04AC018C01E7FACA
:100920005198EAC451981CDBF38E308D2F219051E1
:10093000D48D2FBF00065101E4D2E322EE60C09FA8
:1009400020E7045004411250C82481F53051E57A63
:1009500034AB00752A007DFFD38B00792E7F0450C5
:1009600017E6FEE434999E27D4F71819DFF30D40FB
:10097000E8E79401F7B380E1117877008A00A605D3
:100980000A7F015160BA3ECED530024112752A006D
:100990007834E6FE600331DF18087408F928F8B6E9
:1009A00005004013D3E41836D4D630E409D9F5183D
:1009B000760131DF800619E9C3C898F8792BE6C4BF
:1009C00008D64206F70809B92FF4EE700375300017
:1009D00051CB89247830E6F71819B82AF9E42205B2
:1009E00030E53070F9D0E0D0E04101C0017932E665
:1009F000540FF7E6C4540F19F71819B92AF1D001AA
:100A000022782E7499F618B82AFB7530FF31D0D2AF
:100A1000E1225118E4D2E022511F31D0D2E222E487
:100A2000783DF618B829FB227C00C3EF60229402BF
:100A3000501FC000C001792E782DECD7C4FCE7D63A
:100A4000C4F71819B92AF7E7C4540FF7D001D0003A
:100A500022FFE4C52AC52BC52CC52DC52EFC80CB95
:100A60007C00C3EF60229402501FC000C001782AAE
:100A7000792BE6C4F6E7C4D6F70809B82EF7ECC41C
:100A8000D654F0FCD001D00022FFE4CCC52EC52DF9
:100A9000C52CC52BC52A80CB540FFF783C7932E496
:100AA000F5331826D430E403180608D68FF0E7A4EF
:100AB00075F00A84C5F026D430E40205F008D61893
:100AC000E5F019B92ADC2533D4F622A824740628C7
:100AD000F922511F51CBE6FFE7FE1819E6FCE7FBB0
:100AE0006CFD181922C000782EE7F61918B82AF9FB
:100AF000D0002271B5E7B17E400E710B400AC2E50D
:100B0000B44803D38001C3220980EAC2E5B4470098
:100B1000400122B44100B322511F71B571BB9278DC
:100B200078347E7FD2D5B17C5007540F718E098006
:100B3000F5B42E0C205163D251B834F2D25280EE6B
:100B400020D557B465028003B4453371B471BB92AC
:100B500050B17C5045540FFD09B17C500D540FCD60
:100B600075F00AA42DFD50F07DFFED305009C39EB5
:100B7000F40440097401222E5003740222CE8E30F8
:100B8000B83402511FE524C3940CF5242190C2D53A
:100B9000700BB83408305204DE0274FF2220530276
:100BA000C2522052F32051010E2053F0B83D02D220
:100BB00053F6082209E7B4200C80F9B42B02800414
:100BC000B42D02D3092251D41128EFFE31EB782B3A
:100BD000E525FB6049B4F0005073EE70027E80EBB7
:100BE000C4540FFA91B3CAC39AFF50067D3F91E8EF
:100BF000811EBA00071F91D591E2800691D5EAFFC8
:100C00009197EB540FFA60BD91DE91BCB50203EAF7
:100C100081CC50FBCAC39ACA91CCEAFF8197EE708F
:100C20000491E681E27BF074772E402194F7401D19
:100C300091D791B3B408028197919791A960579188
:100C4000DE7F019197704F91A9604B80F491D77F1F
:100C500001919791DEEB540F6006FF1F9197800280
:100C6000914191E67D4591E8EE600414B4800591D0
:100C7000E6E4800C40067D2B91E8800491DAF404D0
:100C8000C2E7F87A0079277B00B10E7827E6FD915C
:100C9000E808E8B501F722EF600EE64430081FFDD2
:100CA00091E8E4B833F1745522A900E7700409B95A
:100CB00033F922EEC394805001E4FF22C374809E76
:100CC0005001E422EF60FC91E61F80F8FFEF60F333
:100CD00091E21F80F891C4EC600C7D2D800A7D2E7E
:100CE00080067D3080027D20A18975F00AC0E0C0B9
:100CF000F0E9A4F9EBABF0D0F0A4A2D292D52BFB93
:100D0000D0E072D54007540F29F9E43BFB22E49070
:100D10002710B12B9003E8B12B900064B12B900009
:100D20000AB12B900001B12B6020227EFF0ECAB5C4
:100D30008300CA4012C89582C8CA9583CA50EEC8BB
:100D40002582C8CA3583CA4E60E074302EF7092266
:100D500091E6A2369233EBB173EBB174C233E9B1D1
:100D600073E9B1747D4881E8C2332490D43440D40F
:100D7000FD80F3C4540F70F03033ED2271B5B43AF6
:100D800000400122B43000B322C0E0C000A850ED02
:100D9000F60550D000D0E022010E7406801674FAD9
:100DA0002524B400004028F524F922B19AA1C6B147
:100DB0009EA1C6E4A824284016F524E622B1B3E695
:100DC000F70809DCFA227C06E6F71819DCFA22900B
:100DD0000E02010DB1B394815007B19A900E0AA191
:100DE000F694075010F404FB1818E654F0F6DB01F3
:100DF00022E4F6DBF422B19E7B06E493F7A319DB31
:100E0000F922412D535441434B00000000000000E3
:100E100043616C6962726174650043204D6574655D
:100E200072004C204D657465720046727120436FEC
:100E3000756E740046727120436F756E7420314771
:100E4000487A0057656C636F6D65204B6574696CFB
:100E50000000CA9A3B00E1F5058096980040420FD9
:100E600000A086010010270000E8030000640000D5
:100E7000000A000000010000008100000000108155
:100E80000000000020810027594131780000000057
:100E9000108D00000000108A000000001087000084
:090EA000000010840000000010A5
:00000001FF
