:020000040800F2
:10000000002000200D0100084D0100084D010008EE
:100010004D0100084D0100084D01000800000000DE
:100020000000000000000000000000004D0100087A
:100030004D010008000000004D0100084D010008BE
:10004000250A0008290A00082D0A0008310A0008BC
:10005000350A0008390A00083D0A0008410A00086C
:10006000450A0008490A00084D0A0008510A00081C
:10007000550A0008590A00085D0A0008610A0008CC
:10008000650A0008690A00086D0A00084D010008A9
:100090004D0100084D0100084D010008710A0008DB
:1000A000750A000861060008790A00087D0A000840
:1000B0000D020008810A0008850A0008890A000864
:1000C0008D0A0008910A0008950A0008990A00089C
:1000D0009D0A0008A10A0008A50A0008A90A00084C
:1000E000AD0A0008B10A0008B50A000800000000C7
:1000F0000000000000000000000000000000000000
:0C01000000000000000000005FF808F1A3
:10010C00002103E0094B5B58435004310848094B6C
:10011C0042189A42F6D3084A02E0002342F8043B04
:10012C00064B9A42F9D300F0C7F97047700F0008DC
:10013C000000002000000020000000201406002019
:10014C00FEE7000070B586B006464FF000038DF850
:10015C001730ADF8143000934FF001048DF80440C3
:10016C008DF805404FF46022029203938DF81040F5
:10017C004FF41055C4F201052846694600F0C0FA48
:10018C002846314622464FF0070300F00DFB284667
:10019C00214600F0FDFA9DF81730072B21D84FF4BB
:1001AC001054C4F201044FF002052046294600F019
:1001BC00A9FB2046294600F09FFB0028F9D0E26CF1
:1001CC00BDF81430D3189BB2ADF814309DF817302D
:1001DC0003F10103DBB28DF817309DF81730072BB4
:1001EC00E3D94FF41050C4F201004FF0000100F0BD
:1001FC00CFFABDF81400C0F3CC0006B070BD00BF40
:10020C004FF0804000824FF00051CA8802F1010289
:10021C00B2F5007F14BFCA800A7047F20040C4F2E6
:10022C00000002F5847231F812300381704700BF70
:10023C0030B587B04FF0000000F02CFD4FF00003FC
:10024C0001934FF001058DF808508DF809504FF4CB
:10025C006022039204938DF814504FF41054C4F29E
:10026C000104204601A900F04BFA20464FF0020190
:10027C002A464FF0050300F097FA2046294600F075
:10028C0067FA204600F070FA4FF41054C4F20104DF
:10029C00204600F06FFA0028FAD14FF41050C4F247
:1002AC00010000F06BFA4FF41054C4F20104204624
:1002BC0000F06AFA0028FAD107B030BD70B586B0EC
:1002CC004FF0000000F0E6FC4FF0000601964FF0F6
:1002DC0001048DF808408DF809404FF46023039316
:1002EC0004968DF814404FF41055C4F201052846BD
:1002FC0001A900F005FA2846214600F0F3FA284639
:10030C004FF002012246334600F0B4FA06B070BD3D
:10031C0010B500F02DFC4FF4803000F04BFC00F0D9
:10032C0003FD01283ED14FF0100000F0FDFA4FF014
:10033C00000000F0EBFA4FF0000000F087FC4FF0EB
:10034C00000000F09BFC4FF0000000F08BFC4FF025
:10035C00000000F09FFC4FF480304FF4402100F07F
:10036C004FFC4FF0010000F057FC4FF039042046D1
:10037C0000F0C0FC0028FAD04FF0020000F052FC54
:10038C0000F05CFC0828FBD140F614204FF0010172
:10039C0000F08CFC4FF00100C2F200004FF00101A4
:1003AC0000F096FC10BD00BFF0B583B04FF07C039D
:1003BC00ADF804304FF000038DF807304FF0030612
:1003CC008DF806604FF40064C4F20104204601A9C4
:1003DC0000F0B8FA4FF44075ADF804504FF0100728
:1003EC008DF807708DF806604FF48050C4F2010050
:1003FC0001A900F0A7FA204629464FF0010200F0AF
:10040C0003FBADF804508DF807708DF8066020469C
:10041C0001A900F097FA03B0F0BD00BF30B583B06E
:10042C004FF000604FF0000100F096FB4FF0190305
:10043C008DF804304FF000058DF805508DF80650FE
:10044C004FF001048DF8074001A800F02FFB4FF08E
:10045C001C038DF804308DF805508DF806408DF88E
:10046C00074001A800F022FB03B030BD10B584B0EA
:10047C004FF000031A46ADF80A30ADF80430ADF871
:10048C0006304FF06303ADF808308DF80C204FF4B4
:10049C003054C4F20104204601A900F061FC20464E
:1004AC004FF0010100F0A0FC20464FF001010A467C
:1004BC0000F08EFC04B010BD2DE9F041FFF728FFD1
:1004CC00FFF7ACFFFFF770FFFFF7D0FFFFF7B0FEB1
:1004DC00FFF7F4FE4FF4E843C4F200034FF00102BF
:1004EC001A6040F20005C2F2000540F21068C2F238
:1004FC00000805F5027404F1070442F23C46C4F20C
:10050C0001062B78012B74D14FF002032B7098F855
:10051C00003073B14FF48050C4F201004FF480717D
:10052C004FF0000200F070FA4FF0000388F8003032
:10053C000DE04FF48050C4F201004FF480714FF085
:10054C00010200F061FA4FF0010388F800304FF01F
:10055C000300FFF7F7FD28814FF00500FFF7F2FDD0
:10056C0068814FF00600FFF7EDFDA88105F10F0340
:10057C004FF0000203F8012FA342FBD14FF0000310
:10058C00EB80AA784FF43050C4F20100828583844A
:10059C00038640F21263C2F200034FF480721A8099
:1005AC004FF0010100F004FC0DE033684FEA131327
:1005BC00DAB2E98889B26918097C91423FBFEA88AE
:1005CC0092B2AA1813742B78002BEED1EB782B7403
:1005DC004FF000074FF080431F804FF41050C4F2CF
:1005EC000100394600F03AF94FF4E843C4F2000335
:1005FC009F604FF0000303F10103B3F57A7FFAD14A
:10060C007FE700BF00B585B04FF00003ADF80A30AE
:10061C00ADF8043040F20002C2F200029288ADF84C
:10062C000820ADF806308DF80C304FF0804001A951
:10063C0000F096FB4FF080404FF0010100F0D4FB2E
:10064C004FF080404FF001010A4600F0C1FB05B0AD
:10065C0000BD00BF10B54FF40060C4F201004FF4B0
:10066C0040714FF0010200F0CFF94FF43053C4F257
:10067C0001034FF6FE721A8240F20003C2F200032D
:10068C005B7823B340F21264C2F2000421884FF469
:10069C000060C4F2010089B200F0BCF923889BB25F
:1006AC00B3F5807F03D14FF40072228010BD40F26D
:1006BC001263C2F200034FF480721A8040F20003FE
:1006CC00C2F200035A7802F1FF325A7010BD4FF497
:1006DC003050C4F201004FF0000100F069FB4FF400
:1006EC001050C4F201004FF0010100F0B7F8FFF711
:1006FC0089FF4FF080404FF0010100F059FB10BD15
:10070C0010B4436823F4702323F480730A681343F2
:10071C000A7943EA0223436084688A68CB681A43E7
:10072C004FF2FD73CFF6F17304EA030342EA0303BD
:10073C004A7943EA42038360C26A22F470020B7C5A
:10074C0003F1FF33DBB242EA0353C36210BC7047C0
:10075C0021B1836843F0010383607047836823F001
:10076C0001038360704700BF836843F00803836014
:10077C00704700BF8068C0F3C0007047836843F0C7
:10078C0004038360704700BF8068C0F3800070472B
:10079C0021B1836843F4A00383607047836823F41A
:1007AC00A0038360704700BF70B4092910D9C668D4
:1007BC0001EB4104A4F11E044FF0070505FA04F502
:1007CC0026EA050503FA04F445EA0403C3600DE0C8
:1007DC00066901EB41044FF0070505FA04F526EA1A
:1007EC00050503FA04F445EA04030361062A10D84C
:1007FC00446B02F1FF3202EB82024FF01F0303FA4B
:10080C0002F324EA030301FA02F143EA0102426310
:10081C0022E00C2A10D8046B02EB8202A2F1230214
:10082C004FF01F0303FA02F324EA030301FA02F167
:10083C0043EA010202630FE0C46A02EB8202A2F1F6
:10084C0041024FF01F0303FA02F324EA030301FAF7
:10085C0002F143EA0102C26270BC704721B14368E5
:10086C0043F4806343607047436823F480634360C0
:10087C00704700BF70B4092910D9C66801EB410458
:10088C00A4F11E044FF0070505FA04F526EA050548
:10089C0003FA04F445EA0403C3600DE0066901EBB6
:1008AC0041044FF0070505FA04F526EA050503FA9D
:1008BC0004F445EA04030361836BC3F30154121B74
:1008CC0002F10202D2B202EB82024FF01F0404FAD0
:1008DC0002F423EA040301FA02F10B43836370BCB4
:1008EC00704700BF836B23F4401301F1FF3143EADF
:1008FC0001538363704700BF036819420CBF00208B
:10090C00012070476FEA0101016070474FF40053FA
:10091C00C4F202031A6802F038021A601A6840EA3C
:10092C0002021A60704700BF4FF40053C4F2020376
:10093C001A6822F010021A601A6840EA02021A6061
:10094C00704700BF2DE9F003CB7803F00F0513F0CF
:10095C00100F1CBF8B781D430B7833B3D0F800C03D
:10096C004FF000034FF001064FF00F0806FA03F2A8
:10097C000C8802EA0404944211D14FEA830708FA66
:10098C0007F92CEA090C05FA07F74CEA070CCF78A3
:10099C00282F08BF446102D0482F08BF026103F121
:1009AC000103082BE2D1C0F800C00B88FF2B28D91B
:1009BC00D0F804C04FF000034FF001064FF00F08C1
:1009CC0003F1080206FA02F20C8802EA04049442CB
:1009DC0011D14FEA830708FA07F92CEA090C05FA3A
:1009EC0007F74CEA070CCF78282F08BF4461CC7866
:1009FC00482C08BF026103F10103082BE0D1C0F8B9
:100A0C0004C0BDE8F00370470AB101617047416151
:100A1C00704700BFC1607047704700BF704700BF90
:100A2C00704700BF704700BF704700BF704700BFE2
:100A3C00704700BF704700BF704700BF704700BFD2
:100A4C00704700BF704700BF704700BF704700BFC2
:100A5C00704700BF704700BF704700BF704700BFB2
:100A6C00704700BF704700BF704700BF704700BFA2
:100A7C00704700BF704700BF704700BF704700BF92
:100A8C00704700BF704700BF704700BF704700BF82
:100A9C00704700BF704700BF704700BF704700BF72
:100AAC00704700BF704700BF704700BF70B4C37879
:100ABC00002B3ED04FF46D43CEF20003DB686FEA9F
:100ACC000303C3F30223C3F10402457805FA02F2CF
:100ADC004FF00F0525FA03F581780D4015434FEAC9
:100AEC000515027802F003044FEAC40405FA04F574
:100AFC004FEA92024FF46143CEF2000302F1C002BE
:100B0C0053F822604FF0FF0101FA04F126EA0104C8
:100B1C0005EA0101214343F8221002784FEA5211F1
:100B2C0002F01F024FF0010000FA02F243F82120FC
:100B3C0010E003784FEA531203F01F034FF001014A
:100B4C0001FA03F14FF46143CEF2000302F12002EB
:100B5C0043F8221070BC704721F0604121F07F01F6
:100B6C0001434FF46D43CEF200039960704700BF10
:100B7C004FF48053C4F202031A6842F001021A6067
:100B8C0059684FF00002CFF6FF0201EA02025A60E8
:100B9C001A6822F0847222F480321A601A6822F4E5
:100BAC0080221A605A6822F4FE025A604FF000024A
:100BBC009A6070474FF48053C4F202031A6822F40F
:100BCC0080321A601A6822F480221A60B0F5803FD5
:100BDC0003D0B0F5802F11D108E04FF48053C4F24C
:100BEC0002031A6842F480321A6070474FF4805343
:100BFC00C4F202031A6842F4A0221A60704700BFC4
:100C0C004FF48053C4F202035A6822F47C1240EA77
:100C1C0002020A435A6070474FF06003C4F2422349
:100C2C00186070474FF48053C4F202035A6822F0E4
:100C3C00030240EA02025A60704700BF4FF480532F
:100C4C00C4F20203586800F00C0070474FF4805354
:100C5C00C4F202035A6822F0F00240EA02025A601F
:100C6C00704700BF4FF48053C4F202035A6822F459
:100C7C00E06240EA02025A60704700BF4FF48053B2
:100C8C00C4F202035A6822F4605242EAC0025A606B
:100C9C00704700BF4FF48053C4F202035A6822F429
:100CAC00404240EA02025A60704700BF39B14FF42B
:100CBC008053C4F202039A691043986170474FF451
:100CCC008053C4F202039A6922EA000098617047CB
:100CDC0039B14FF48053C4F20203DA691043D8617E
:100CEC0070474FF48053C4F20203DA6922EA000021
:100CFC00D86170474FEA5013012B05D14FF4805344
:100D0C00C4F202031B6807E0022B4FF48053C4F2B9
:100D1C0002030CBF1B6A5B6A00F01F0023FA00F091
:100D2C0000F00100704700BF10B582B04FF0000317
:100D3C0001934FF031042046FFF7DCFF019B03F1D8
:100D4C000103019318B9019BB3F5A06FF3D14FF0D8
:100D5C003100FFF7CFFF003818BF012002B010BDE3
:100D6C00038803F08F03038003889BB2CA88134364
:100D7C004A8813439BB203808B8883850B88038539
:100D8C004FF0010383824FF43053C4F201034FF44C
:100D9C005052C4F20102904214BF00220122984228
:100DAC0014BF134642F001030BB10B7A0386704754
:100DBC0029B103889BB243F0010303807047038879
:100DCC0023F001034FEA83534FEA93530380704798
:100DDC0022B183899BB219438181704783899BB26D
:100DEC0023EA0101818170476FEA010189B2018216
:100DFC00704700BF43F60C03C4F201031A88F0B429
:100E0C0012F4005212D00A2851D043F60002C4F258
:100E1C000102B2F800C01CF0800FFAD043F60403B4
:100E2C0080B2C4F201031880F0BC704741F2180480
:100E3C00C4F20204266840F6040146F00407276059
:100E4C002568C4F2010145F001062660276843F6C7
:100E5C00100647F4804525600F6843F6140527F00B
:100E6C00F0040C600F6843F6080447F0B0070F60FD
:100E7C000F684FF00C0C27F470670F600F68C4F20A
:100E8C00010647F480670F60C4F2010540F241315E
:100E9C00C4F201043280A3F800C02A8021801A8891
:100EAC000A281FFA82FC4CF400511980ADD143F68C
:100EBC000C03C4F201031A8812F400520FD043F64B
:100ECC000002C4F20102138813F0800FFBD043F62A
:100EDC000401C4F201014FF00D020A8095E741F2C2
:100EEC001804C4F20204266840F6040146F0040714
:100EFC0027602568C4F2010145F0010626602768C9
:100F0C0043F6100647F4804525600F6843F6140538
:100F1C0027F0F0040C600F6843F6080447F0B007A4
:100F2C000F600F6840F2413C27F470670F600F6848
:100F3C00C4F2010647F480670F60C4F201054FF05C
:100F4C000C01C4F20104328019802A80A4F800C07C
:100F5C001A8891B241F4005CA3F800C0AFE700BF5F
:040F6C00101C70479E
:040000050800010CE2
:00000001FF
