:020000040800F2
:1000000000200020E5010008370200083702000840
:10001000370200083702000837020008000000001D
:10002000000000000000000000000000370200088F
:1000300037020008000000003702000837020008FD
:10004000210A0008250A0008290A00082D0A0008CC
:10005000310A0008350A0008390A00083D0A00087C
:10006000410A0008450A0008490A00084D0A00082C
:10007000510A0008550A0008590A00085D0A0008DC
:10008000610A0008650A0008690A000837020008CA
:100090003702000837020008370200086D0A00081E
:1000A000710A0008750A0008790A00087D0A00082C
:1000B00075040008810A0008850A0008890A0008FA
:1000C0008D0A0008910A0008950A0008990A00089C
:1000D0009D0A0008A10A0008A50A0008A90A00084C
:1000E000AD0A0008B10A0008B50A0008B90A0008FC
:1000F000BD0A0008C10A0008C50A0008C90A0008AC
:10010000CD0A0008D10A0008D50A0008D90A00085B
:10011000DD0A0008E10A000861030008490400083C
:10012000E50A0008E90A0008ED0A0008F10A0008DB
:1001300000000000000000000000000000000000BF
:1001400000000000000000000000000000000000AF
:10015000000000000000000000000000000000009F
:10016000000000000000000000000000000000008F
:10017000000000000000000000000000000000007F
:10018000000000000000000000000000000000006F
:10019000000000000000000000000000000000005F
:1001A000000000000000000000000000000000004F
:1001B000000000000000000000000000000000003F
:1001C000000000000000000000000000000000002F
:1001D000000000000000000000000000000000001F
:0401E0005FF8E0F1F3
:1001E40000F026F80C4880F30888002103E00B4B4C
:1001F4005B58435004310A480A4B42189A42F6D3DA
:10020400094A02E0002342F8043B084B9A42F9D31E
:1002140000F02EFB7047000000200020D8120008D8
:10022400000000200000002000000020341C0020FA
:100234007047FEE740F20003C2F200035B7F3BB16C
:100244004FF4E843C4F200034FF001021A60704710
:100254004FF4E843C4F200034FF003021A607047FE
:100264004FEA535531F8155015802344F8E700BF81
:1002740008B540F23001C2F2000147F20842C4F26C
:1002840000024FF0000340F21804C2F20004246894
:10029400FFF7E6FF08BD00BF30B585B040F20003AC
:1002A400C2F20003DB8BADF8083041F2DF53ADF846
:1002B40004304FF000031C46ADF80A30ADF80630A8
:1002C4004FF48055C4F20005284601A900F06AFDE8
:1002D400284600F00FFE4FF036038DF800308DF8FD
:1002E40001404FF001048DF802408DF80340684648
:1002F40000F0FEFB2846214600F0CCFD28462146AE
:1003040000F01EFE28462146224600F0E7FD4FF08D
:10031400000C4FF4805AC4F2000AC0F2400C40F6BC
:100324000009C4F2010940F23001C2F2000147F2AF
:100334000842C4F200024FF0000340F20008C2F287
:100344000008D8F82000D8F82460D8F82870D8F825
:100354002C803446FFF784FF05B030BDAAF8109016
:10036400C9F810C04FF0400C30B94444BC4204BF3B
:100374003446C9F810C070474444BC4218BF7047A3
:10038400B3463E465F46A9EB0808704730B585B0D2
:1003940040F20003C2F20003DB8BADF8083041F2F7
:1003A400DF53ADF804304FF000031C46ADF80A30BB
:1003B400ADF806304FF4A055C4F20005284601A953
:1003C40000F0F0FC284600F095FD4FF037038DF85F
:1003D40000308DF801404FF001048DF802408DF893
:1003E4000340684600F084FB2846214600F052FD95
:1003F4002846214600F0A4FD28462146224600F066
:100404006DFD4FF000094FF4A05AC4F2000A40F207
:100414003001C2F2000147F20842C4F200024FF078
:10042400000340F20008C2F20008D8F824B0D8F85B
:1004340028C0D8F82C805C464FF03006FFF710FF38
:1004440005B030BDAAF810904FF41050C4F201006A
:10045400B0F840704FF48050C2F20000875306F1A8
:1004640002064444644504BF5C463026704700BF1E
:100474004FF08041098240F20040C4F2000040F68F
:100484000001C4F20001838C8A8C43EA02424FF0DB
:1004940000514B684A60A2EB03020A60704700BF38
:1004A40030B587B04FF0000000F016FC4FF00003A9
:1004B40001934FF001058DF808508DF809504FF461
:1004C4006022039204938DF814504FF41054C4F234
:1004D4000104204601A900F039FD20464FF0020135
:1004E4002A464FF0050300F079FD2046294600F026
:1004F40055FD204600F05EFD4FF41054C4F2010493
:10050400204600F05DFD0028FAD14FF41050C4F2EB
:10051400010000F059FD4FF41054C4F201042046C8
:1005240000F058FD0028FAD107B030BD30B587B0CF
:100534004FF4404000F0D0FB4FF0000301934FF024
:1005440001058DF808508DF809504FF4602203928C
:1005540004938DF814504FF41054C4F2010420464F
:1005640001A900F0F3FC20464FF0020100F0D4FD95
:1005740020464FF002012A464FF0070300F094FD95
:1005840020464FF003014FF002024FF0070300F042
:100594008BFD2046294600F07BFD07B030BD00BF2F
:1005A40010B500F007FB4FF4803000F025FB00F09D
:1005B400DDFB41F63043C2F200031870012830D14C
:1005C4004FF0100000F0C0FD4FF0000000F0AEFD51
:1005D4004FF0000000F05CFB4FF0000000F070FBF7
:1005E4004FF0000000F060FB4FF0000000F074FBDF
:1005F4004FF480304FF4A01100F024FB4FF00100C1
:1006040000F02CFB4FF03904204600F095FB002845
:10061400FAD04FF0020000F027FB00F031FB08286D
:10062400FBD140F61C204FF0010100F061FB4FF0BC
:100634003700C2F200004FF0010100F06BFB10BD67
:1006440070B582B04FF03C03ADF804304FF00003B6
:100654008DF807304FF003058DF806504FF4006411
:10066400C4F20104204601A900F074F94FF4407368
:10067400ADF804304FF010068DF807608DF8065081
:100684004FF48050C4F2010001A900F063F94FF463
:100694008073ADF804304FF018038DF807308DF8EF
:1006A4000650204601A900F055F94FF08003ADF83B
:1006B40004304FF004038DF807308DF806502046BF
:1006C4000DEB030100F046F94FF04003ADF80430A0
:1006D4008DF807608DF80650204601A900F03AF91C
:1006E40002B070BD00B583B04FF000604FF0000160
:1006F40000F054FA4FF01C038DF804304FF000035F
:100704008DF805308DF806304FF001038DF8073071
:1007140001A800F0EDF903B000BD00BFF0B589B049
:1007240040F20006C2F20006B38AADF81830738AAC
:10073400ADF814304FF00004ADF81A40ADF816408F
:100744008DF81C404FF43055C4F20105284605A924
:1007540000F028FB4FF06003ADF804304FF00107C0
:10076400ADF80670ADF80840F38AADF80A30ADF87C
:100774000C404FF00203ADF80E30ADF81040ADF868
:100784001240284601A900F035FB28464FF0080125
:1007940000F0CAFB2846394600F0B6FB2846394625
:1007A40000F088FB737C33B14FF43050C4F2010085
:1007B400394600F06FFB09B0F0BD00BF00B585B04D
:1007C40042F20F73ADF8083041F2DF53ADF8043054
:1007D4004FF00003ADF80A30ADF806304FF080401A
:1007E40001A900F0DFFA4FF0804000F083FB05B070
:1007F40000BD00BF10B584B04FF0FF33ADF8083032
:100804004FF00003ADF80430ADF80A30ADF806300F
:100814004FF48064C4F20004204601A900F0C2FA37
:100824004FF4807323834FF0670323814FF0200339
:10083400A38004B010BD00BF10B584B04FF0FF33E7
:10084400ADF808304FF00003ADF80430ADF80A30CD
:10085400ADF806304FF40064C4F20004204601A948
:1008640000F0A0FA4FF02703238104B010BD00BFAD
:1008740070B5FFF795FEFFF735FFFFF7E1FEFFF7D1
:100884009DFFFFF7B7FFFFF7D7FFFFF709FEFFF75D
:100894004DFE40F20004C2F200044FF48065C4F23D
:1008A40000054FF48056C4F20106237C012B24D1A9
:1008B4004FF00003237430464FF4807100F0ACF81D
:1008C400FFF7B8FCFFF72AFF237F03F1FF33042B64
:1008D40038D8DFE803F00306090C0F00FFF7C8FC63
:1008E40030E0FFF7D9FC2DE0FFF7D6FC2AE0FFF754
:1008F400D3FC27E0FFF74AFD24E0022B22D14FF07E
:10090400000323744FF080404FF0010100F0C2FA5D
:1009140028464FF0010100F0BDFA4FF40060C4F224
:1009240000004FF0010100F0B5FA4FF080404FF0A5
:10093400010100F005FB4FF080404FF001010A4631
:1009440000F0CCFA48F2A063C0F20103013BFDD1F0
:10095400ABE700BF2DE9F003CB7803F00F0513F0EC
:10096400100F1CBF8B781D430B7833B3D0F800C035
:100974004FF000034FF001064FF00F0806FA03F2A0
:100984000C8802EA0404944211D14FEA830708FA5E
:1009940007F92CEA090C05FA07F74CEA070CCF789B
:1009A400282F08BF446102D0482F08BF026103F119
:1009B4000103082BE2D1C0F800C00B88FF2B28D913
:1009C400D0F804C04FF000034FF001064FF00F08B9
:1009D40003F1080206FA02F20C8802EA04049442C3
:1009E40011D14FEA830708FA07F92CEA090C05FA32
:1009F40007F74CEA070CCF78282F08BF4461CC785E
:100A0400482C08BF026103F10103082BE0D1C0F8B0
:100A140004C0BDE8F003704701617047704700BF30
:100A2400704700BF704700BF704700BF704700BFEA
:100A3400704700BF704700BF704700BF704700BFDA
:100A4400704700BF704700BF704700BF704700BFCA
:100A5400704700BF704700BF704700BF704700BFBA
:100A6400704700BF704700BF704700BF704700BFAA
:100A7400704700BF704700BF704700BF704700BF9A
:100A8400704700BF704700BF704700BF704700BF8A
:100A9400704700BF704700BF704700BF704700BF7A
:100AA400704700BF704700BF704700BF704700BF6A
:100AB400704700BF704700BF704700BF704700BF5A
:100AC400704700BF704700BF704700BF704700BF4A
:100AD400704700BF704700BF704700BF704700BF3A
:100AE400704700BF704700BF704700BF704700BF2A
:100AF40070B4C378002B3ED04FF46D43CEF20003A4
:100B0400DB686FEA0303C3F30223C3F104024578ED
:100B140005FA02F24FF00F0525FA03F581780D402E
:100B240015434FEA0515027802F003044FEAC404A2
:100B340005FA04F54FEA92024FF46143CEF2000342
:100B440002F1C00253F822604FF0FF0101FA04F1F0
:100B540026EA010405EA0101214343F82210027840
:100B64004FEA521102F01F024FF0010000FA02F2A4
:100B740043F8212010E003784FEA531203F01F03D7
:100B84004FF0010101FA03F14FF46143CEF2000387
:100B940002F1200243F8221070BC704721F060413A
:100BA40021F07F0101434FF46D43CEF200039960BD
:100BB400704700BF4FF48053C4F202031A6842F036
:100BC40001021A6059684FF00002CFF6FF0201EAF1
:100BD40002025A601A6822F0847222F480321A6087
:100BE4001A6822F480221A605A6822F4FE025A60BB
:100BF4004FF000029A6070474FF48053C4F202032E
:100C04001A6822F480321A601A6822F480221A6068
:100C1400B0F5803F03D0B0F5802F11D108E04FF438
:100C24008053C4F202031A6842F480321A60704797
:100C34004FF48053C4F202031A6842F4A0221A60EB
:100C4400704700BF4FF48053C4F202035A6822F481
:100C54007C1240EA02020A435A6070474FF0600374
:100C6400C4F24223186070474FF48053C4F2020365
:100C74005A6822F0030240EA02025A60704700BF39
:100C84004FF48053C4F20203586800F00C0070471C
:100C94004FF48053C4F202035A6822F0F00240EA8F
:100CA40002025A60704700BF4FF48053C4F202033B
:100CB4005A6822F4E06240EA02025A60704700BFB8
:100CC4004FF48053C4F202035A6822F4605242EA99
:100CD400C0025A60704700BF4FF48053C4F202034D
:100CE4005A6822F4404240EA02025A60704700BF48
:100CF40039B14FF48053C4F202039A6910439861E6
:100D040070474FF48053C4F202039A6922EA000048
:100D14009861704739B14FF48053C4F20203DA6921
:100D24001043D86170474FF48053C4F20203DA6968
:100D340022EA0000D86170474FEA5013012B05D115
:100D44004FF48053C4F202031B6807E0022B4FF4F4
:100D54008053C4F202030CBF1B6A5B6A00F01F00DD
:100D640023FA00F000F00100704700BF10B582B014
:100D74004FF0000301934FF031042046FFF7DCFFEE
:100D8400019B03F10103019318B9019BB3F5A06F13
:100D9400F3D14FF03100FFF7CFFF003818BF012027
:100DA40002B010BD038803F08F03038003889BB255
:100DB400CA8813434A8813439BB203808B88838574
:100DC4000B8803854FF0010383824FF43053C4F240
:100DD40001034FF45052C4F20102904214BF0022A6
:100DE4000122984214BF134642F001030BB10B7A5F
:100DF4000386704770B4038C23F001034FEA034366
:100E04004FEA13430384038C8488A4B2028B22F038
:100E140070024FEA02424FEA12420D882A4323F03D
:100E240002034FEA03434FEA13434E880D8946EA0F
:100E34000505ADB245EA0303CD8885864FF43055E8
:100E4400C4F201054FF45056C4F20106B04214BF77
:100E540000260126A84214BF354646F00105A5B177
:100E64004FF6F77503EA05054B891D434FF6FB73EF
:100E740005EA03038D882B4347F6FF4504EA05057D
:100E8400CC8989890C43A4B22C43848002830384D3
:100E940070BC704729B103889BB243F001030380FF
:100EA4007047038823F001034FEA83534FEA9353B7
:100EB4000380704749B1B0F844306FEA43436FEAA6
:100EC40053439BB2A0F844307047B0F844304FEA23
:100ED40043434FEA5343A0F84430704722B1838917
:100EE4009BB219438181704783899BB223EA010134
:100EF40081817047038923F007034FEA03434FEAD4
:100F040013430381704700BF29B103889BB243F0A8
:100F1400800303807047038823F080034FEA8353E0
:100F24004FEA935303807047038B23F008034FEA7F
:100F340003434FEA134341EA03030383704700BFAB
:100F44006FEA010189B20182704700BF10B443689F
:100F540023F4702323F480730A6813430A7943EA61
:100F64000223436084688A68CB681A434FF2FD7396
:100F7400CFF6F17304EA030342EA03034A7943EA2E
:100F840042038360C26A22F470020B7C03F1FF33D4
:100F9400DBB242EA0353C36210BC704721B18368D9
:100FA40043F0010383607047836823F00103836087
:100FB400704700BF836843F008038360704700BF35
:100FC4008068C0F3C0007047836843F00403836003
:100FD400704700BF8068C0F38000704770B409296F
:100FE40010D9C66801EB4104A4F11E044FF00705B3
:100FF40005FA04F526EA050503FA04F445EA0403B0
:10100400C3600DE0066901EB41044FF0070505FAE2
:1010140004F526EA050503FA04F445EA040303612A
:10102400062A10D8446B02F1FF3202EB82024FF021
:101034001F0303FA02F324EA030301FA02F143EA69
:101044000102426322E00C2A10D8046B02EB8202F4
:10105400A2F123024FF01F0303FA02F324EA03036D
:1010640001FA02F143EA010202630FE0C46A02EBEF
:101074008202A2F141024FF01F0303FA02F324EAB1
:10108400030301FA02F143EA0102C26270BC704731
:1010940021B1436843F4806343607047436823F499
:1010A40080634360704700BF70B4092910D9C668D3
:1010B40001EB4104A4F11E044FF0070505FA04F501
:1010C40026EA050503FA04F445EA0403C3600DE0C7
:1010D400066901EB41044FF0070505FA04F526EA19
:1010E400050503FA04F445EA04030361836BC3F3BF
:1010F4000154121B02F10202D2B202EB82024FF03F
:101104001F0404FA02F423EA040301FA02F10B4374
:10111400836370BC704700BF836B23F4401301F1F9
:10112400FF3143EA01538363704700BF4FF4005318
:10113400C4F202031A6802F038021A601A6840EA1C
:1011440002021A60704700BF4FF40053C4F2020356
:101154001A6822F010021A601A6840EA02021A6041
:10116400704700BF43F60C03C4F201031A88F0B4BD
:1011740012F4005212D00A2851D043F60002C4F2ED
:101184000102B2F800C01CF0800FFAD043F6040349
:1011940080B2C4F201031880F0BC704741F2180415
:1011A400C4F20204266840F6040146F004072760EE
:1011B4002568C4F2010145F001062660276843F65C
:1011C400100647F4804525600F6843F6140527F0A0
:1011D400F0040C600F6843F6080447F0B0070F6092
:1011E4000F684FF00C0C27F470670F600F68C4F29F
:1011F400010647F480670F60C4F2010540F24131F3
:10120400C4F201043280A3F800C02A8021801A8825
:101214000A281FFA82FC4CF400511980ADD143F620
:101224000C03C4F201031A8812F400520FD043F6DF
:101234000002C4F20102138813F0800FFBD043F6BE
:101244000401C4F201014FF00D020A8095E741F256
:101254001804C4F20204266840F6040146F00407A8
:1012640027602568C4F2010145F00106266027685D
:1012740043F6100647F4804525600F6843F61405CD
:1012840027F0F0040C600F6843F6080447F0B00739
:101294000F600F6840F2413C27F470670F600F68DD
:1012A400C4F2010647F480670F60C4F201054FF0F1
:1012B4000C01C4F20104328019802A80A4F800C011
:1012C4001A8891B241F4005CA3F800C0AFE700BFF4
:0412D400101C704733
:04000005080001E40A
:00000001FF
